:020000040800F2
:100000000028002099140008450C00084B0C00083B
:10001000510C0008570C00085D0C0008000000009F
:10002000000000000000000000000000630C000859
:100030006F0C0008000000007B0C0008870C000813
:10004000E1140008E1140008E1140008E1140008BC
:10005000E1140008E1140008E1140008E1140008AC
:10006000E1140008E1140008E1140008E11400089C
:10007000E1140008E1140008E1140008E11400088C
:10008000E1140008E1140008E1140008E11400087C
:10009000E1140008E1140008E1140008E11400086C
:1000A000E1140008E1140008E1140008E11400085C
:1000B000950C0008E114000800000000E11400089D
:1000C000E11400080000000000000000E114000836
:1000D00000000000E1140008E11400080000000026
:1000E000E1140008E1140008E11400080000000019
:1000F0000000000000000000000000000000000000
:0C01000000000000000000005FF808F1A3
:10010C0010B5054C237833B9044B13B10448AFF345
:10011C0000800123237010BD94000020000000001B
:10012C006C2C000808B5034B1BB103490348AFF313
:10013C00008008BD00000000980000206C2C000816
:10014C0080B584B000AF786039603968786800F0A9
:10015C00A1F8174B1B68184602F0FAFC03461A4626
:10016C00144B1A60124B1B68184602F0F1FC034644
:10017C001A46114B1A600023FB600EE00D4B1A68F7
:10018C00FB68134400221A700B4B1A68FB6813446B
:10019C0000221A70FB680133FB60FA68044B1B6881
:1001AC009A42EBD300BF00BF1037BD4680BD00BFE5
:1001BC001C01002018010020B000002080B582B086
:1001CC0000AF00237B6033E01E4B1A687B6813443E
:1001DC001B78002B02D0012B0FD026E07B68DBB202
:1001EC00184600F0F7F80346002B1BD0154B1A6885
:1001FC007B68134401221A7014E07B68DBB218464A
:10020C0000F0E8F80346002B0ED10E4B1A687B6801
:10021C00134400221A700C4B1A687B681344012299
:10022C001A7001E000BF00E000BF7B6801337B6007
:10023C007A68064B1B689A42C6D300BF00BF0837CA
:10024C00BD4680BD18010020B00000201C0100201C
:10025C0080B483B000AF7860044B1A687B68134499
:10026C001B7818460C37BD4680BC7047B000002088
:10027C0080B483B000AF7860054B1A687B68134478
:10028C0000221A7000BF0C37BD4680BC704700BFFF
:10029C00B000002080B584B000AF78603960214A8E
:1002AC003B681360204A7B6813601E4B1B68184622
:1002BC0002F04EFC03461A461C4B1A60194B1B6885
:1002CC00184602F045FC03461A46194B1A60154BAA
:1002DC001B68184602F03CFC03461A46154B1A6084
:1002EC000023FB6014E0114B1A68FB6813440122D5
:1002FC001A700F4B1A68FB68134401221A700D4BCD
:10030C001A68FB68134401221A70FB680133FB6006
:10031C00FA68044B1B689A42E5D300BF00BF103744
:10032C00BD4680BD1C01002020010020B40000202F
:10033C00B8000020BC00002090B583B000AF0023B3
:10034C00FB7131E01D4B1A68FB791A441C4B196880
:10035C00FB790B4412781A701A4B1A68FB795B0004
:10036C0013441988154B1A68FB79D418164801F0F8
:10037C009DFB03462370114B1A68FB7913441A78C2
:10038C000F4B1968FB790B441B789A4209D10B4B24
:10039C001A68FB791A440D4B1968FB790B441278D7
:1003AC001A70FB790133FB71FA79094B1B689A427D
:1003BC00C8D300BF00BF0C37BD4690BDB8000020AD
:1003CC00BC0000202001002000080140B4000020E7
:1003DC001C01002080B483B000AF0346FB71FA7996
:1003EC000A4B1B689A4201D3002309E0084B1A6898
:1003FC00FB7913441B78002B0CBF01230023DBB2C9
:10040C0018460C37BD4680BC704700BF1C0100204D
:10041C00B400002080B485B000AFF860B9607A6099
:10042C003B601D4A3B6813601C4AFB6813601C4A06
:10043C00BB6813601B4A7B681360194B1B681A88D6
:10044C00174B1B6802331B8813439AB2144B1B685F
:10045C0004331B8813439AB2114B1B6806331B8859
:10046C0013439AB20E4B1B6808331B8813439AB282
:10047C000B4B1B680A331B8813439AB2084B1B683F
:10048C000C331B8813439AB2074B1A8000BF1437E6
:10049C00BD4680BC704700BFC0000020C8000020D3
:1004AC00C4000020CC000020D000002080B586B015
:1004BC0000AF78602B4B1B88012219462A4801F0AB
:1004CC000CFB2A4B1A687B6813441B781A46284B82
:1004DC009B5CFB7300237B6115E0FA7B40217B69FD
:1004EC0041FA03F31340002B0AD1224B1A687B69A3
:1004FC005B0013441B88002219461B4801F0EDFADF
:10050C007B6901337B617B69062BE6DD00233B6154
:10051C001DE03B697A689A420BD1174B1A683B690C
:10052C005B0013441B88002219460F4801F0D5FAD2
:10053C000AE0114B1A683B695B0013441B880122CB
:10054C001946094801F0C9FA3B6901333B613A6924
:10055C000A4B1B689A42DCD300BF00BF1837BD465C
:10056C0080BD00BFD0000020000C0140CC0000205A
:10057C0000000020C4000020C8000020C0000020A3
:10058C0098B500AF00F0A8FF00F0F2F800F078F991
:10059C0000F02AF96C4801F009FF022302221946E7
:1005AC00694800F0D1FB0423684A69496948FFF7A0
:1005BC0031FF03216848FFF7C3FD6849684800F024
:1005CC00E3FD684B1B78002B07D0002BC0F29D80FD
:1005DC00013B022B00F2998027E00020FFF738FE48
:1005EC000346002B10D00020FFF742FE5D4B01228A
:1005FC001A7000F01BFF0121002000F02FFD0121DB
:10060C00012000F02BFD80E000F00AFE002000F03D
:10061C00FDFC0346DCB2012000F0F8FC0346DBB223
:10062C001946204600F0B2F96FE00020FFF710FEEB
:10063C000346002B26D00020FFF71AFE494B1B78EF
:10064C00032B04D0474B1B780133DBB200E00023B3
:10065C00444A137000F0EAFE434B1B78002B04D184
:10066C00062242493D4800F06EFA3E4B1B78032BA4
:10067C004AD10021002000F0F1FC0021012000F003
:10068C00EDFC41E00120FFF7E3FD0346002B08D011
:10069C000120FFF7EDFD334B1B783449184600F071
:1006AC00DFF90220FFF7D4FD0346002B05D0022012
:1006BC00FFF7DEFD2C4B01221A702A4B1B78012B05
:1006CC0008D12A4B1B78274A12781146184600F09D
:1006DC005DF91AE0234B1B78022B08D1234B9B7836
:1006EC00204A12781146184600F050F90DE01D4BC7
:1006FC001B78032B09D11D4B5B781A4A12781146D3
:10070C00184600F043F900E000BFFFF757FD00F07A
:10071C001BF9144B1B78184600F074F900F0A0FE7E
:10072C000346002B3FF44DAF0F4B1B78002B07D02B
:10073C000D4B00221A70062208490C4800F003FAEF
:10074C0000F098FE3DE700BF240100200C000020C3
:10075C00942C0008A42C0008AC2C000810000020DD
:10076C00B42C0008D2000020D30000201800002078
:10077C0080B590B000AF07F118032822002118466D
:10078C0002F0EEF93B1D00221A605A609A60DA60A2
:10079C001A610223BB610123BB621023FB6200239D
:1007AC007B6307F11803184601F0C8F90346002BC8
:1007BC0001D000F0E6F90F237B600023BB6000231F
:1007CC00FB6000233B6100237B613B1D002118462D
:1007DC0001F034FC0346002B01D000F0D2F900BF2D
:1007EC004037BD4680BD000080B586B000AF07F134
:1007FC00080300221A605A609A60DA603B460022B5
:10080C001A605A601D4B4FF080421A601B4B40F22D
:10081C001F325A60194B00229A60184B6322DA601F
:10082C00164B00221A61154B00229A61134801F0F5
:10083C006DFD0346002B01D000F0A3F94FF480535B
:10084C00BB6007F1080319460C4801F003FF03468F
:10085C00002B01D000F095F900233B6000237B6056
:10086C003B461946054802F0CBF80346002B01D055
:10087C0000F087F900BF1837BD4680BD2401002069
:10088C0080B586B000AF07F1080300221A605A60E9
:10089C009A60DA60294B9B69284A43F00403936100
:1008AC00264B9B6903F004037B607B68234B9B699D
:1008BC00224A43F008039361204B9B6903F0080321
:1008CC003B603B6800224FF47E711D4801F005F936
:1008DC00002240F2FF711B4801F0FFF84FF47E73C9
:1008EC00BB600123FB6000233B6102237B6107F1AA
:1008FC0008031946124800F05FFF40F2FF73BB601B
:10090C000123FB6000233B6102237B6107F1080399
:10091C0019460C4800F050FF4FF4E053BB60002325
:10092C00FB6000233B6107F108031946044800F003
:10093C0043FF00BF1837BD4680BD00BF001002400A
:10094C0000080140000C014080B500AF002000F011
:10095C0025FB0346002B14D0FA231946002000F087
:10096C009DFA094B1B785A1CD1B2074A11701846D4
:10097C00FFF79CFD044B1B78042B02D1024B002289
:10098C001A7000BF80BD00BFD400002080B483B0BB
:10099C0000AF03460A46FB711346BB71FB79174A3D
:1009AC00A2FB0323DB08DAB2154B1A70FA79134B4E
:1009BC00A3FB0213D9080B469B000B445B00D31A14
:1009CC00DAB20F4B5A70BB790C4AA2FB0323DB083B
:1009DC00DAB20B4B9A70BA79084BA3FB0213D90805
:1009EC000B469B000B445B00D31ADAB2044BDA7053
:1009FC0000BF0C37BD4680BC704700BFCDCCCCCC03
:100A0C000C00002080B582B000AF0346FB71FB796F
:100A1C00002B1FD0012000F0C1FA0346002B1AD086
:100A2C004FF4FA731946012000F038FAFB79013BB8
:100A3C00102202FA03F31AB2FB79013B802101FA6E
:100A4C0003F31BB213431BB29BB21946034801F0CC
:100A5C005CF800E000BF0837BD4680BD00080140CF
:100A6C0080B483B000AF03463960FB71FB79032B74
:100A7C0029D0032B5BDC012B02D0022B45D056E096
:100A8C003B6801331B78012B53D93B6803331B782C
:100A9C00012B4ED93B681B780133DAB23B681A70D4
:100AAC003B6801331A78013AD2B21A703B680333AF
:100ABC001A78013AD2B21A703B6804331A780132B0
:100ACC00D2B21A7035E03B681B78012B33D93B68E6
:100ADC0004331B78012B2ED93B6801331A78013271
:100AEC00D2B21A703B681B78013BDAB23B681A70C1
:100AFC003B6804331A78013AD2B21A703B6803335C
:100B0C001A780132D2B21A7015E03B6801331B78A7
:100B1C00012B12D93B6802331A780132D2B21A7007
:100B2C003B6801331A78013AD2B21A7005E000BF63
:100B3C0004E000BF02E000BF00E000BF00BF0C37C4
:100B4C00BD4680BC704780B487B000AFF860B96018
:100B5C007A6000237B610AE07B69FA681A447B693E
:100B6C00B9680B4412781A707B6901337B617A691E
:100B7C007B689A42F0DB00BF00BF1C37BD4680BCCF
:100B8C00704780B400AF72B600BFFEE780B485B08A
:100B9C0000AF154B9B69144A43F001039361124B50
:100BAC009B6903F00103BB60BB680F4BDB690E4A0A
:100BBC0043F08053D3610C4BDB6903F080537B60B3
:100BCC007B680A4B5B68FB60FB6823F0E063FB60AF
:100BDC00FB6843F08063FB60044AFB68536000BF12
:100BEC001437BD4680BC7047001002400000014025
:100BFC0080B584B000AF78607B681B68B3F1804F20
:100C0C0013D10C4BDB690B4A43F00103D361094B45
:100C1C00DB6903F00103FB60FB68002200211C2050
:100C2C0000F093FD1C2000F0ACFD00BF1037BD465A
:100C3C0080BD00BF0010024080B400AFFEE780B45E
:100C4C0000AFFEE780B400AFFEE780B400AFFEE774
:100C5C0080B400AFFEE780B400AF00BFBD4680BCDF
:100C6C00704780B400AF00BFBD4680BC704780B4F5
:100C7C0000AF00BFBD4680BC704780B500AF00F030
:100C8C0071FC00BF80BD000080B500AF024801F0D0
:100C9C00D9FB00BF80BD00BF2401002080B582B00D
:100CAC0000AF7860396001F015FF034616221A6018
:100CBC004FF0FF3318460837BD4680BD80B582B073
:100CCC0000AF78604FF0FF317868FFF7E7FFFEE781
:100CDC0080B586B000AF7860144A154BD31A7B618F
:100CEC007B693B61134B1B68002B02D1114B124AE1
:100CFC001A60104B1A687B6813443A699A4207D2FF
:100D0C0001F0E8FE03460C221A604FF0FF3309E0B5
:100D1C00084B1B68FB60074B1A687B681344054A39
:100D2C001360FB6818461837BD4680BD00280020AC
:100D3C0000040000D80000208001002080B400AF27
:100D4C0000BFBD4680BC704780B586B000AFF86070
:100D5C00B9607A60FB681B68DB6A0133FA68126859
:100D6C00926A013202FB03F3424AA2FB03235B0AA1
:100D7C00414A1360414A7B681360414ABB68136067
:100D8C003E4B1B689B00184601F0E2FE03461A46D8
:100D9C003C4B1A603A4B1B689B00184601F0D8FE7E
:100DAC0003461A46384B1A60344B1B68184601F040
:100DBC00CFFE03461A46354B1A60314B1B6818465A
:100DCC0001F0C6FE03461A46314B1A602B4B1B68CA
:100DDC00184601F0BDFE03461A462E4B1A60284BEE
:100DEC001B68184601F0B4FE03461A462A4B1A60DB
:100DFC0000237B6115E0234B1A687B699B0013442D
:100E0C0000221A60214B1A687B69134401221A7064
:100E1C00204B1A687B69134400221A707B690133DA
:100E2C007B617A69154B1B689A42E4D300233B61C2
:100E3C0015E0154B1A683B699B00134400221A609D
:100E4C00134B1A683B69134401221A70124B1A682F
:100E5C003B69134400221A703B6901333B613A69C8
:100E6C00074B1B689A42E4D300BF00BF1837BD463E
:100E7C0080BD00BFD34D6210DC000020E0000020DC
:100E8C00E4000020E8000020EC000020F00000202E
:100E9C00F4000020F8000020FC00002080B582B097
:100EAC0000AF03463960FB713B684FF47A7202FB6A
:100EBC0003F3154A1268B3FBF2F102FB01F29B1A21
:100ECC00002B01D000231AE0FA79104B1B689A42D0
:100EDC0003D34FF0FF3001F003FE0B4B1A680C4BA1
:100EEC001968FB799B000B443968B1FBF2F21A606C
:100EFC00084B1A68FB79134400221A700123184618
:100F0C000837BD4680BD00BFDC000020E400002097
:100F1C00E8000020F000002080B582B000AF03464E
:100F2C003960FB713B684FF47A7202FB03F3174A8A
:100F3C001268B3FBF2F102FB01F29B1A002B01D0F9
:100F4C0000231EE0FA79124B1B689A4203D34FF030
:100F5C00FF3001F0C5FD3B684FF47A7202FB03F1E0
:100F6C000A4B1A680B4B1868FB799B000344B1FBC6
:100F7C00F2F21A60084B1A68FB79134400221A70BB
:100F8C00012318460837BD4680BD00BFDC00002099
:100F9C00E4000020EC000020F400002080B582B0BA
:100FAC0000AF0346FB71FA79084B1B689A4203D3D6
:100FBC004FF0FF3001F094FD054B1A68FB79134498
:100FCC001B7818460837BD4680BD00BFE4000020E2
:100FDC00F000002080B582B000AF0346FB71FA79B7
:100FEC00084B1B689A4203D34FF0FF3001F078FD99
:100FFC00054B1A68FB7913441B7818460837BD4615
:10100C0080BD00BFE4000020F400002080B582B059
:10101C0000AF0346FB71FA790C4B1B689A4203D361
:10102C004FF0FF3001F05CFD094B1A68FB799B0017
:10103C0013441B68074A126802FB03F3064AA2FB1F
:10104C0003239B0918460837BD4680BDE4000020E9
:10105C00EC000020DC000020D34D621080B483B083
:10106C0000AF03460A46FB711346BB71054B1A6869
:10107C00FB791344BA791A7000BF0C37BD4680BC9B
:10108C00704700BFFC00002080B584B000AF7860D2
:10109C00FFF752F90023FB6029E0334B1A68FB6819
:1010AC0013441B78012B1ED0304B1A68FB689B0035
:1010BC0013441B68002B17D02C4B1A68FB689B0041
:1010CC0013441A68013A1A60284B1A68FB689B0093
:1010DC0013441B68002B07D1254B1A68FB6813447B
:1010EC0001221A7000E000BFFB680133FB60FA6854
:1010FC00204B1B689A42D0D30023BB6029E01E4BC7
:10110C001A68BB6813441B78012B1ED01B4B1A6842
:10111C00BB689B0013441B68002B17D0174B1A6835
:10112C00BB689B0013441A68013A1A60134B1A6887
:10113C00BB689B0013441B68002B07D1104B1A682B
:10114C00BB68134401221A7000E000BFBB68013376
:10115C00BB60BA680B4B1B689A42D0D300BF00BF70
:10116C001037BD4680BD00BFF8000020E80000200D
:10117C00F0000020E0000020FC000020EC0000202B
:10118C00F4000020E400002080B582B000AF78604D
:10119C0039601D4A7B6813601C4A3B6813601C4B0A
:1011AC0002221A701B4B00221A70174B1B681A88EC
:1011BC00154B1B6802331B8813439AB2124B1B68E6
:1011CC0004331B8813439AB20F4B1B6806331B88DE
:1011DC0013439AB20C4B1B6808331B8813439AB207
:1011EC00094B1B680A331B8813439AB20A4B1A80AB
:1011FC00094B1B8801221946084800F06EFC00BF01
:10120C000837BD4680BD00BF040100200801002046
:10121C0000010020010100200C0100200008014009
:10122C0080B500AF7A4B1B78032B73D801A252F810
:10123C0023F000BF511200088B120008C7120008DF
:10124C00FD1200080020FFF7C5FE0346002B0DD051
:10125C00704B1B6801331B7819460020FFF75CFEAE
:10126C006B4B01221A7000F0E1F853E06A4B1B68DB
:10127C001B8800221946694800F02FFC4AE0002028
:10128C00FFF7A8FE0346002B0DD0624B1B68023300
:10129C001B7819460020FFF73FFE5D4B02221A70A7
:1012AC0000F0C4F836E05C4B1B6802331B8800224C
:1012BC0019465A4800F011FC2CE00020FFF78AFE7A
:1012CC000346002B0AD0524B03221A70544B0022B7
:1012DC001A70544B01221A7000F0A8F84E4B1B6880
:1012EC0004331B88002219464C4800F0F6FB11E031
:1012FC004B4B1B78002B0CD04A4B00221A70444BE2
:10130C0000221A70434B1B681B7819460020FFF70C
:10131C0003FE00BF444B1B78032B76D801A252F876
:10132C0023F000BFB9130008411300087D13000817
:10133C00F11300080120FFF74DFE0346002B0DD0E2
:10134C00344B1B6805331B7819460120FFF7E4FD6D
:10135C00354B02221A7000F069F856E02E4B1B68D0
:10136C0008331B88002219462C4800F0B6FB4CE0D1
:10137C000120FFF72FFE0346002B0DD0254B1B68D9
:10138C0003331B7819460120FFF7C6FD264B0022BC
:10139C001A7000F04BF838E01F4B1B680A331B889F
:1013AC00002219461D4800F098FB2EE00120FFF7A3
:1013BC0011FE0346002B0BD01B4B03221A70184B4B
:1013CC0000221A70174B01221A7000F02FF81CE043
:1013DC00114B1B6806331B88002219460F4800F07E
:1013EC007CFB12E00E4B1B78002B0DD00D4B00221A
:1013FC001A700D4B01221A70064B1B6804331B78B4
:10140C0019460120FFF788FD00BF00BF80BD00BF5B
:10141C000001002008010020040100200008014008
:10142C00240000200E0100200101002080B500AF37
:10143C00084B1B6804331B8801221946064800F030
:10144C004CFB064B1B8801221946034800F045FB58
:10145C0000BF80BD04010020000801400C010020E9
:10146C0080B400AF024B1B781846BD4680BC704759
:10147C000E01002080B400AF034B01221A7000BF94
:10148C00BD4680BC704700BF240000200C480D49AD
:10149C000D4A002302E0D458C4500433C4188C42C3
:1014AC00F9D30A4A0A4C002301E013600432A24229
:1014BC00FBD3FFF743FC01F027FBFFF761F8704704
:1014CC000000002094000020DC2C00089400002078
:1014DC0080010020FEE7000080B500AF084B1B68C0
:1014EC00074A43F010031360032000F023F90F2088
:1014FC0000F008F8FFF74AFB0023184680BD00BF38
:10150C000020024080B582B000AF7860124B1A68A0
:10151C00124B1B7819464FF47A73B3FBF1F3B2FB01
:10152C00F3F3184600F03BF90346002B01D00123DE
:10153C000EE07B680F2B0AD8002279684FF0FF3041
:10154C0000F003F9064A7B681360002300E00123D6
:10155C0018460837BD4680BD200000202C00002016
:10156C002800002080B400AF054B1B781A46054BB1
:10157C001B681344034A136000BFBD4680BC704710
:10158C002C0000206C01002080B400AF024B1B68C3
:10159C001846BD4680BC70476C01002080B485B0F5
:1015AC0000AF78607B6803F00703FB600C4BDB68D3
:1015BC00BB60BA684FF6FF031340BB60FB681A02AE
:1015CC00BB68134343F0BF6343F40033BB60044A6E
:1015DC00BB68D36000BF1437BD4680BC704700BFEA
:1015EC0000ED00E080B400AF044BDB681B0A03F095
:1015FC0007031846BD4680BC704700BF00ED00E0F5
:10160C0080B483B000AF0346FB7197F90730002B11
:10161C000BDBFB7903F01F02064997F907305B09D6
:10162C00012000FA02F241F8232000BF0C37BD461E
:10163C0080BC704700E100E080B483B000AF03468B
:10164C003960FB7197F90730002B0ADB3B68DAB283
:10165C000C4997F907301201D2B20B4483F80023DE
:10166C000AE03B68DAB20849FB7903F00F03043B4C
:10167C001201D2B20B441A7600BF0C37BD4680BCA7
:10168C00704700BF00E100E000ED00E080B489B0DD
:10169C0000AFF860B9607A60FB6803F00703FB6188
:1016AC00FB69C3F10703042B28BF0423BB61FB694F
:1016BC000433062B02D9FB69033B00E000237B615A
:1016CC004FF0FF32BB6902FA03F3DA43BB681A40EE
:1016DC007B699A404FF0FF317B6901FA03F3D943E0
:1016EC007B680B40134318462437BD4680BC7047BB
:1016FC0080B582B000AF78607B68013BB3F1807F2E
:10170C0001D301230FE00A4A7B68013B53600F2190
:10171C004FF0FF30FFF790FF054B00229A60044B0F
:10172C0007221A60002318460837BD4680BD00BF4B
:10173C0010E000E080B582B000AF78607868FFF709
:10174C002DFF00BF0837BD4680BD80B586B000AF09
:10175C000346B9607A60FB7300237B61FFF742FF9D
:10176C0078617A68B9687869FFF790FF024697F953
:10177C000F3011461846FFF75FFF00BF1837BD4604
:10178C0080BD80B582B000AF0346FB7197F907307E
:10179C001846FFF735FF00BF0837BD4680BD80B542
:1017AC0082B000AF78607868FFF7A2FF0346184656
:1017BC000837BD4680BD000080B48BB000AF7860A8
:1017CC00396000237B6200233B6248E101227B6A83
:1017DC0002FA03F3FB613B681B68FA691340BB61B7
:1017EC00BA69FB699A4240F037813B685B68A34A4F
:1017FC0093425ED0A14A934275D8A14A934258D0E5
:10180C009F4A93426FD89F4A934252D09D4A93422B
:10181C0069D89D4A93424CD09B4A934263D89B4AC9
:10182C00934246D0994A93425DD8122B2AD8122B58
:10183C0059D801A252F823F0BF18000899180008D3
:10184C00AB180008ED180008F3180008F31800088E
:10185C00F3180008F3180008F3180008F318000830
:10186C00F3180008F3180008F3180008F318000820
:10187C00F3180008F3180008F3180008A118000862
:10188C00B5180008824A934213D02CE03B68DB6801
:10189C003B6229E03B68DB6804333B6224E03B6835
:1018AC00DB6808333B621FE03B68DB680C333B6250
:1018BC001AE03B689B68002B02D104233B6213E0C7
:1018CC003B689B68012B05D108233B627B68FA6956
:1018DC001A6109E008233B627B68FA695A6103E0EC
:1018EC0000233B6200E000BFBB69FF2B01D87B6883
:1018FC0001E07B6804337B61BB69FF2B02D87B6AF8
:10190C009B0002E07B6A083B9B003B617B691A6889
:10191C000F213B6901FA03F3DB431A40396A3B6937
:10192C0001FA03F31A437B691A603B685B6803F0A6
:10193C008053002B00F09080564B9B69554A43F026
:10194C0001039361534B9B6903F00103BB60BB68BC
:10195C00514A7B6A9B08023352F82330FB607B6A46
:10196C0003F003039B000F2202FA03F3DB43FA6834
:10197C001340FB607B68494A93420DD07B68484A10
:10198C00934207D07B68474A934201D1022304E07B
:10199C00032302E0012300E000237A6A02F0030231
:1019AC0092009340FA681343FB603B497B6A9B08A7
:1019BC000233FA6841F823203B685B6803F48033F8
:1019CC00002B06D0384B1A683749BB6913430B60A0
:1019DC0006E0354B1A68BB69DB43334913400B6097
:1019EC003B685B6803F40033002B06D02E4B5A681F
:1019FC002D49BB6913434B6006E02B4B5A68BB69FE
:101A0C00DB43294913404B603B685B6803F480134C
:101A1C00002B06D0244B9A682349BB6913438B6077
:101A2C0006E0214B9A68BB69DB431F4913408B606E
:101A3C003B685B6803F40013002B06D01A4BDA6882
:101A4C001949BB691343CB6006E0174BDA68BB69D5
:101A5C00DB4315491340CB607B6A01337B623B68E7
:101A6C001A687B6A22FA03F3002B7FF4AFAE00BF37
:101A7C0000BF2C37BD4680BC704700BF0000321041
:101A8C000000311000002210000021100000121084
:101A9C00000011100010024000000140000801403D
:101AAC00000C0140001001400004014080B485B0DE
:101ABC0000AF78600B467B807B689A687B8813400C
:101ACC00002B02D00123FB7301E00023FB73FB7B93
:101ADC0018461437BD4680BC704780B483B000AF45
:101AEC0078600B467B8013467B707B78002B03D091
:101AFC007A887B681A6103E07B881A047B681A6118
:101B0C0000BF0C37BD4680BC704780B485B000AFB9
:101B1C0078600B467B807B68DB68FB607A88FB68AF
:101B2C0013401A04FB68D9437B880B401A437B682B
:101B3C001A6100BF1437BD4680BC704780B586B0B3
:101B4C0000AF78607B68002B01D101236CE27B68CD
:101B5C001B6803F00103002B00F08780924B5B683D
:101B6C0003F00C03042B0CD08F4B5B6803F00C03BD
:101B7C00082B12D18C4B5B6803F48033B3F5803F98
:101B8C000BD1894B1B6803F40033002B6CD07B68A2
:101B9C005B68002B68D1012346E27B685B68B3F578
:101BAC00803F06D1804B1B687F4A43F4803313601F
:101BBC002EE07B685B68002B0CD17B4B1B687A4A50
:101BCC0023F480331360784B1B68774A23F480230B
:101BDC0013601DE07B685B68B3F5A02F0CD1724BD2
:101BEC001B68714A43F4802313606F4B1B686E4A69
:101BFC0043F4803313600BE06B4B1B686A4A23F48D
:101C0C0080331360684B1B68674A23F4802313608E
:101C1C007B685B68002B13D0FFF7B6FC386108E0DB
:101C2C00FFF7B2FC02463B69D31A642B01D903239C
:101C3C00FAE15D4B1B6803F40033002BF0D014E089
:101C4C00FFF7A2FC386108E0FFF79EFC02463B69F7
:101C5C00D31A642B01D90323E6E1534B1B6803F41D
:101C6C000033002BF0D100E000BF7B681B6803F051
:101C7C000203002B63D04C4B5B6803F00C03002B6E
:101C8C000BD0494B5B6803F00C03082B1CD1464B63
:101C9C005B6803F48033002B16D1434B1B6803F0B5
:101CAC000203002B05D07B681B69012B01D001239B
:101CBC00BAE13D4B1B6823F0F8027B685B69DB00E3
:101CCC00394913430B603AE07B681B69002B20D029
:101CDC00364B01221A60FFF757FC386108E0FFF71A
:101CEC0053FC02463B69D31A022B01D903239BE117
:101CFC002D4B1B6803F00203002BF0D02A4B1B6802
:101D0C0023F0F8027B685B69DB00274913430B6007
:101D1C0015E0264B00221A60FFF736FC386108E00C
:101D2C00FFF732FC02463B69D31A022B01D903237D
:101D3C007AE11D4B1B6803F00203002BF0D17B688A
:101D4C001B6803F00803002B3AD07B689B69002BBF
:101D5C0019D0174B01221A60FFF716FC386108E006
:101D6C00FFF712FC02463B69D31A022B01D903235D
:101D7C005AE10D4B5B6A03F00203002BF0D00120FB
:101D8C0000F0A6FA1CE00A4B00221A60FFF7FCFBDD
:101D9C0038610FE0FFF7F8FB02463B69D31A022BC0
:101DAC0008D9032340E100BF00100240000042426A
:101DBC00800442429E4B5B6A03F00203002BE9D184
:101DCC007B681B6803F00403002B00F0A680002343
:101DDC00FB75974BDB6903F08053002B0DD1944BB3
:101DEC00DB69934A43F08053D361914BDB6903F079
:101DFC008053BB60BB680123FB758E4B1B6803F4DF
:101E0C008073002B18D18B4B1B688A4A43F4807368
:101E1C001360FFF7B9FB386108E0FFF7B5FB02462A
:101E2C003B69D31A642B01D90323FDE0814B1B685A
:101E3C0003F48073002BF0D07B68DB68012B06D198
:101E4C007B4B1B6A7A4A43F0010313622DE07B68DB
:101E5C00DB68002B0CD1764B1B6A754A23F001030F
:101E6C001362734B1B6A724A23F0040313621CE067
:101E7C007B68DB68052B0CD16D4B1B6A6C4A43F0FD
:101E8C00040313626A4B1B6A694A43F00103136231
:101E9C000BE0674B1B6A664A23F001031362644B29
:101EAC001B6A634A23F0040313627B68DB68002B14
:101EBC0015D0FFF769FB38610AE0FFF765FB0246B6
:101ECC003B69D31A41F28832934201D90323ABE028
:101EDC00574B1B6A03F00203002BEED014E0FFF704
:101EEC0053FB38610AE0FFF74FFB02463B69D31AFC
:101EFC0041F28832934201D9032395E04C4B1B6A83
:101F0C0003F00203002BEED1FB7D012B05D1484BD6
:101F1C00DB69474A23F08053D3617B68DB69002B74
:101F2C0000F08180424B5B6803F00C03082B61D0FE
:101F3C007B68DB69022B46D13F4B00221A60FFF70E
:101F4C0023FB386108E0FFF71FFB02463B69D31AFD
:101F5C00022B01D9032367E0354B1B6803F0007398
:101F6C00002BF0D17B681B6AB3F5803F08D1304B56
:101F7C005B6823F400327B689B682D4913434B60EC
:101F8C002B4B5B6823F474127B68196A7B685B6A61
:101F9C000B43274913434B60274B01221A60FFF771
:101FAC00F3FA386108E0FFF7EFFA02463B69D31AFF
:101FBC00022B01D9032337E01D4B1B6803F0007380
:101FCC00002BF0D02FE01C4B00221A60FFF7DCFA3C
:101FDC00386108E0FFF7D8FA02463B69D31A022BA6
:101FEC0001D9032320E0124B1B6803F00073002B74
:101FFC00F0D118E07B68DB69012B01D1012313E0E0
:10200C000B4B5B68FB60FB6803F480327B681B6ADC
:10201C009A4206D1FB6803F470127B685B6A9A42A1
:10202C0001D0012300E0002318461837BD4680BDBF
:10203C0000100240007000406000424280B584B045
:10204C0000AF786039607B68002B01D10123D0E0B0
:10205C006A4B1B6803F007033A689A4210D9674B26
:10206C001B6823F0070265493B6813430B60634B05
:10207C001B6803F007033A689A4201D00123B8E0C9
:10208C007B681B6803F00203002B20D07B681B6865
:10209C0003F00403002B05D0594B5B68584A43F4FA
:1020AC00E06353607B681B6803F00803002B05D0CA
:1020BC00534B5B68524A43F460535360504B5B681C
:1020CC0023F0F0027B689B684D4913434B607B689F
:1020DC001B6803F00103002B40D07B685B68012B6D
:1020EC0007D1474B1B6803F40033002B15D1012398
:1020FC007FE07B685B68022B07D1414B1B6803F0C8
:10210C000073002B09D1012373E03D4B1B6803F0D6
:10211C000203002B01D101236BE0394B5B6823F0E8
:10212C0003027B685B68364913434B60FFF72CFA5C
:10213C00F8600AE0FFF728FA0246FB68D31A41F26E
:10214C008832934201D9032353E02D4B5B6803F093
:10215C000C027B685B689B009A42EBD1274B1B6897
:10216C0003F007033A689A4210D2244B1B6823F001
:10217C00070222493B6813430B60204B1B6803F09A
:10218C0007033A689A4201D0012332E07B681B684E
:10219C0003F00403002B08D0194B5B6823F4E062B6
:1021AC007B68DB68164913434B607B681B6803F044
:1021BC000803002B09D0124B5B6823F460527B6838
:1021CC001B69DB000E4913434B6000F021F80246FB
:1021DC000B4B5B681B0903F00F030A49CB5C22FA1B
:1021EC0003F3094A1360094B1B681846FFF78AF979
:1021FC00002318461037BD4680BD00BF00200240AA
:10220C0000100240C02C00082000002028000020F4
:10221C0090B48AB000AF2A4B3C1D0FCB84E80F0062
:10222C0040F201233B800023FB610023BB610023B0
:10223C007B6200237B6100233B62224B5B68FB616A
:10224C00FB6903F00C03042B02D0082B03D02DE008
:10225C001D4B3B622DE0FB699B0C03F00F0307F158
:10226C002802134413F8243C7B61FB6903F480338C
:10227C00002B13D0134B5B685B0C03F0010307F1CD
:10228C002802134413F8283CBB617B690E4A02FBFD
:10229C0003F2BB69B2FBF3F37B6204E07B690B4A8C
:1022AC0002FB03F37B627B6A3B6202E0064B3B6200
:1022BC0000BF3B6A18462837BD4690BC704700BF2C
:1022CC00842C00080010024000127A0000093D0026
:1022DC0080B485B000AF78600A4B1B680A4AA2FB39
:1022EC0003235B0A7A6802FB03F3FB6000BFFB6805
:1022FC005A1EFA60002BF9D100BF00BF1437BD463F
:10230C0080BC704720000020D34D621080B582B095
:10231C0000AF78607B68002B01D1012341E07B6822
:10232C0093F83D30DBB2002B06D17B68002283F89A
:10233C003C207868FEF75CFC7B68022283F83D2029
:10234C007B681A687B6804331946104600F06AFAF9
:10235C007B68012283F846207B68012283F83E20AB
:10236C007B68012283F83F207B68012283F84020A0
:10237C007B68012283F841207B68012283F842208C
:10238C007B68012283F843207B68012283F8442078
:10239C007B68012283F845207B68012283F83D206D
:1023AC00002318460837BD4680BD000080B485B0B8
:1023BC0000AF78607B6893F83D30DBB2012B01D025
:1023CC00012335E07B68022283F83D207B681B6883
:1023DC00DA687B681B6842F00102DA607B681B6874
:1023EC00164A934209D07B681B68B3F1804F04D026
:1023FC007B681B68124A934211D17B681B689B68EF
:10240C0003F00703FB60FB68062B10D07B681B688E
:10241C001A687B681B6842F001021A6007E07B684F
:10242C001B681A687B681B6842F001021A60002363
:10243C0018461437BD4680BC704700BF002C0140C5
:10244C000004004080B582B000AF78607B681B68E8
:10245C001B6903F00203022B22D17B681B68DB682B
:10246C0003F00203022B1BD17B681B686FF0020286
:10247C001A617B6801221A777B681B689B6903F0E1
:10248C000303002B03D0786800F0B1F905E07868FD
:10249C0000F0A4F9786800F0B3F97B6800221A7791
:1024AC007B681B681B6903F00403042B22D17B6837
:1024BC001B68DB6803F00403042B1BD17B681B68CF
:1024CC006FF004021A617B6802221A777B681B6822
:1024DC009B6903F44073002B03D0786800F087F9F4
:1024EC0005E0786800F07AF9786800F089F97B6883
:1024FC0000221A777B681B681B6903F00803082B02
:10250C0022D17B681B68DB6803F00803082B1BD106
:10251C007B681B686FF008021A617B6804221A77CB
:10252C007B681B68DB6903F00303002B03D078681E
:10253C0000F05DF905E0786800F050F9786800F07B
:10254C005FF97B6800221A777B681B681B6903F0B4
:10255C001003102B22D17B681B68DB6803F010037F
:10256C00102B1BD17B681B686FF010021A617B6803
:10257C0008221A777B681B68DB6903F44073002B15
:10258C0003D0786800F033F905E0786800F026F99C
:10259C00786800F035F97B6800221A777B681B6835
:1025AC001B6903F00103012B0ED17B681B68DB68F0
:1025BC0003F00103012B07D17B681B686FF001024C
:1025CC001A617868FEF760FD7B681B681B6903F075
:1025DC008003802B0ED17B681B68DB6803F08003C3
:1025EC00802B07D17B681B686FF080021A617868BA
:1025FC0000F067FA7B681B681B6903F04003402BF3
:10260C000ED17B681B68DB6803F04003402B07D1BD
:10261C007B681B686FF040021A61786800F0F9F86B
:10262C007B681B681B6903F02003202B0ED17B6891
:10263C001B68DB6803F02003202B07D17B681B6829
:10264C006FF020021A61786800F032FA00BF083788
:10265C00BD4680BD80B584B000AF786039607B68C2
:10266C0093F83C30012B01D10223B3E07B680122AB
:10267C0083F83C207B68022283F83D207B681B6832
:10268C009B68FB60FB6823F07703FB60FB6823F41B
:10269C007F43FB607B681B68FA689A603B681B6829
:1026AC00B3F5005F3ED0B3F5005F00F28780B3F561
:1026BC00805F00F08580B3F5805F7FD8702B1AD0D7
:1026CC00702B7BD8602B50D0602B77D8502B3CD004
:1026DC00502B73D8402B58D0402B6FD8302B64D054
:1026EC00302B6BD8202B60D0202B67D8002B5CD0E4
:1026FC00102B5AD062E07B6818683B6899683B687D
:10270C005A683B68DB6800F05CF97B681B689B6867
:10271C00FB60FB6843F07703FB607B681B68FA681F
:10272C009A604EE07B6818683B6899683B685A6809
:10273C003B68DB6800F045F97B681B689A687B682E
:10274C001B6842F480429A603BE07B6818683B68E7
:10275C0059683B68DB681A4600F0BCF87B681B685C
:10276C005021184600F013F92BE07B6818683B6881
:10277C0059683B68DB681A4600F0DAF87B681B681E
:10278C006021184600F003F91BE07B6818683B6871
:10279C0059683B68DB681A4600F09CF87B681B683C
:1027AC004021184600F0F3F80BE07B681A683B6890
:1027BC001B681946104600F0EAF802E000BF00E082
:1027CC0000BF7B68012283F83D207B68002283F8E0
:1027DC003C20002318461037BD4680BD80B483B022
:1027EC0000AF786000BF0C37BD4680BC704780B42A
:1027FC0083B000AF786000BF0C37BD4680BC70471B
:10280C0080B483B000AF786000BF0C37BD4680BC8D
:10281C00704780B483B000AF786000BF0C37BD4602
:10282C0080BC704780B485B000AF786039607B683D
:10283C001B68FB607B68254A934207D07B68B3F129
:10284C00804F03D07B68224A934208D1FB6823F067
:10285C007003FB603B685B68FA681343FB607B6842
:10286C001A4A934207D07B68B3F1804F03D07B6840
:10287C00174A934208D1FB6823F44073FB603B6812
:10288C00DB68FA681343FB60FB6823F080023B684B
:10289C005B691343FB607B68FA681A603B689A6853
:1028AC007B68DA623B681A687B689A627B68074AC5
:1028BC00934203D13B681A697B681A637B680122D7
:1028CC005A6100BF1437BD4680BC7047002C0140D4
:1028DC000004004080B487B000AFF860B9607A6043
:1028EC00FB681B6A7B61FB681B6A23F00102FB68B7
:1028FC001A62FB689B693B613B6923F0F0033B6107
:10290C007B681B013A6913433B617B6923F00A0323
:10291C007B617A69BB6813437B61FB683A699A6196
:10292C00FB687A691A6200BF1C37BD4680BC7047D1
:10293C0080B487B000AFF860B9607A60FB681B6A3E
:10294C0023F01002FB681A62FB689B697B61FB68D1
:10295C001B6A3B617B6923F470437B617B681B03BF
:10296C007A6913437B613B6923F0A0033B61BB682D
:10297C001B013A6913433B61FB687A699A61FB68F6
:10298C003A691A6200BF1C37BD4680BC704780B4E0
:10299C0085B000AF786039607B689B68FB60FB6832
:1029AC0023F07003FB603A68FB68134343F00703A2
:1029BC00FB607B68FA689A6000BF1437BD4680BC28
:1029CC00704780B487B000AFF860B9607A603B6044
:1029DC00FB689B687B617B6923F47F437B613B686D
:1029EC001A027B681A43BB6813437A6913437B61F1
:1029FC00FB687A699A6000BF1C37BD4680BC704783
:102A0C0080B485B000AF786039607B6893F83C3057
:102A1C00012B01D1022341E07B68012283F83C2089
:102A2C007B68022283F83D207B681B685B68FB6037
:102A3C007B681B689B68BB60FB6823F07003FB60C2
:102A4C003B681B68FA681343FB607B681B68FA6879
:102A5C005A607B681B68144A934209D07B681B68D8
:102A6C00B3F1804F04D07B681B68104A93420CD1A1
:102A7C00BB6823F08003BB603B685B68BA68134398
:102A8C00BB607B681B68BA689A607B68012283F81C
:102A9C003D207B68002283F83C2000231846143725
:102AAC00BD4680BC704700BF002C014000040040B4
:102ABC0080B483B000AF786000BF0C37BD4680BCDB
:102ACC00704780B483B000AF786000BF0C37BD4650
:102ADC0080BC7047014B1868704700BF3000002065
:102AEC0008B5074B044613B10021AFF30080054B2A
:102AFC001868836A03B198472046FEF7DFF800BFD9
:102B0C0000000000D02C000870B500260C4D0D4CB8
:102B1C00641BA410A64209D100F0A2F800260A4DAD
:102B2C000A4C641BA410A64205D170BD55F8043B99
:102B3C0098470136EEE755F8043B98470136F2E723
:102B4C00D42C0008D42C0008D42C0008D82C000855
:102B5C00024B0146186800F00BB800BF3000002093
:102B6C0003460244934200D1704703F8011BF9E776
:102B7C00F8B5CD1C25F0030508350C2D38BF0C25F8
:102B8C00002D064601DBA94203D90C23336000203B
:102B9C00F8BD00F057F821490A6814469CB9204F3B
:102BAC003B6823B92146304600F03CF83860294692
:102BBC00304600F037F8431C23D10C2330463360E9
:102BCC0000F046F8E3E723685B1B17D40B2B03D903
:102BDC0023601C44256004E06368A2420CBF0B60B8
:102BEC005360304600F034F804F10B00231D20F044
:102BFC000700C21ACCD01B1AA350C9E7224664683E
:102C0C00CCE7C41C24F00304A042E3D0211A3046C4
:102C1C0000F008F80130DDD1CFE700BF1001002033
:102C2C001401002038B50023054D044608462B60DE
:102C3C00FEF74EF8431C02D12B6803B1236038BD5C
:102C4C0070010020014800F009B800BF7801002095
:102C5C00014800F004B800BF7801002070477047AD
:102C6C00F8B500BFF8BC08BC9E467047F8B500BF6D
:082C7C00F8BC08BC9E4670473D
:102C840002030405060708090A0B0C0D0E0F1010A9
:102C940001000200040008001000200040000000B1
:102CA400800000010002000400040008001000007D
:102CB400100040002000800000020001000000001D
:102CC4000000000001020304060708093400002084
:042CD40031010008C2
:042CD8000D010008E2
:102CDC00014F12064C24200F0004FF0000010204D7
:102CEC000906030906030000090603090603000090
:102CFC000024F4000100000010000000010000009E
:102D0C003400002000000000000000000000000063
:102D1C0000000000000000000000000000000000A7
:102D2C000000000000000000000000000000000097
:102D3C000000000000000000000000000000000087
:102D4C000000000000000000000000000000000077
:102D5C000000000000000000000000000000000067
:042D6C000000000063
:040000050800149942
:00000001FF
