:020000040800F2
:100000000028002059100008090900080F090008FD
:10001000150900081B09000821090008000000005C
:100020000000000000000000000000002709000898
:1000300033090008000000003F0900084B090008D0
:10004000A1100008A1100008A1100008A1100008CC
:10005000A1100008A1100008A1100008A1100008BC
:10006000A1100008A1100008A1100008A1100008AC
:10007000A1100008A1100008A1100008A11000089C
:10008000A1100008A1100008A1100008A11000088C
:10009000A1100008A1100008A1100008A11000087C
:1000A000A1100008A1100008A1100008A11000086C
:1000B00059090008A110000800000000A110000864
:1000C000A11000080000000000000000A1100008BE
:1000D00000000000A1100008A110000800000000AE
:1000E000A1100008A1100008A110000800000000E5
:1000F0000000000000000000000000000000000000
:0C01000000000000000000005FF808F1A3
:10010C0010B5054C237833B9044B13B10448AFF345
:10011C0000800123237010BD880000200000000027
:10012C00FC27000808B5034B1BB103490348AFF388
:10013C00008008BD000000008C000020FC27000897
:10014C0080B584B000AF786039603968786800F0A9
:10015C007FF8174B1B68184602F0C2FA03461A4682
:10016C00144B1A60124B1B68184602F0B9FA03467E
:10017C001A46114B1A600023FB600EE00D4B1A68F7
:10018C00FB68134400221A700B4B1A68FB6813446B
:10019C0000221A70FB680133FB60FA68044B1B6881
:1001AC009A42EBD300BF00BF1037BD4680BD00BFE5
:1001BC000401002000010020A400002080B582B0C2
:1001CC0000AF00237B6033E01E4B1A687B6813443E
:1001DC001B78002B02D0012B0FD026E07B68DBB202
:1001EC00184600F0D5F80346002B1BD0154B1A68A7
:1001FC007B68134401221A7014E07B68DBB218464A
:10020C0000F0C6F80346002B0ED10E4B1A687B6823
:10021C00134400221A700C4B1A687B681344012299
:10022C001A7001E000BF00E000BF7B6801337B6007
:10023C007A68064B1B689A42C6D300BF00BF0837CA
:10024C00BD4680BD00010020A40000200401002058
:10025C0080B584B000AF78603960214A3B68136088
:10026C00204A7B6813601E4B1B68184602F038FA54
:10027C0003461A461C4B1A60194B1B68184602F0B1
:10028C002FFA03461A46194B1A60154B1B68184671
:10029C0002F026FA03461A46154B1A600023FB603F
:1002AC0014E0114B1A68FB68134401221A700F4BAF
:1002BC001A68FB68134401221A700D4B1A68FB680C
:1002CC00134401221A70FB680133FB60FA68044B7B
:1002DC001B689A42E5D300BF00BF1037BD4680BDF6
:1002EC000401002008010020A8000020AC00002020
:1002FC00B000002090B583B000AF0023FB7131E05B
:10030C001D4B1A68FB791A441C4B1968FB790B447A
:10031C0012781A701A4B1A68FB795B00134419880F
:10032C00154B1A68FB79D418164801F09FF903464F
:10033C002370114B1A68FB7913441A780F4B196808
:10034C00FB790B441B789A4209D10B4B1A68FB7949
:10035C001A440D4B1968FB790B4412781A70FB790F
:10036C000133FB71FA79094B1B689A42C8D300BF61
:10037C0000BF0C37BD4690BDAC000020B000002083
:10038C000801002000080140A80000200401002002
:10039C0080B483B000AF0346FB71FA790A4B1B683B
:1003AC009A4201D3002309E0084B1A68FB791344E5
:1003BC001B78002B0CBF01230023DBB218460C3733
:1003CC00BD4680BC704700BF04010020A80000207F
:1003DC0080B485B000AFF860B9607A603B60084AC1
:1003EC003B681360074AFB681360074ABB681360DD
:1003FC00064A7B68136000BF1437BD4680BC70474B
:10040C00B4000020BC000020B8000020C000002078
:10041C0080B586B000AF78603D4B1B681A883C4BAA
:10042C001B6802331B8813439AB2394B1B68043385
:10043C001B8813439AB2364B1B6806331B88134335
:10044C009AB2334B1B6808331B8813439AB2304B58
:10045C001B680A331B8813439AB22D4B1B680C3351
:10046C001B8813439BB2012219462A4801F015F947
:10047C00294B1A687B6813441B781A46274B9B5CE4
:10048C00FB7300237B6115E0FA7B40217B6941FA09
:10049C0003F31340002B0AD11D4B1A687B695B00D8
:1004AC0013441B88002219461A4801F0F6F87B69A0
:1004BC0001337B617B69062BE6DD00233B611DE08C
:1004CC003B697A689A420BD1154B1A683B695B0001
:1004DC0013441B88002219460E4801F0DEF80AE08E
:1004EC000F4B1A683B695B0013441B8801221946A9
:1004FC00084801F0D2F83B6901333B613A69094B7A
:10050C001B689A42DCD300BF00BF1837BD4680BDC4
:10051C00B8000020000C0140C000002000000020AA
:10052C00BC000020B400002098B500AF00F0B4FD72
:10053C0000F03EF800F0C4F800F076F8154801F031
:10054C00FDFC022302221946124800F05FFA042334
:10055C00114A12491248FFF73BFF03211148FFF7DC
:10056C00EFFD1149114800F023FC00F06DFCFFF782
:10057C0025FE002000F08AFB0346DCB2012000F0CF
:10058C0085FB0346DBB21946204600F01FF900F04C
:10059C00FBF8EAE70C0100200C00002024280008DE
:1005AC00342800083C2800081000002044280008CB
:1005BC0080B590B000AF07F118032822002118462F
:1005CC0002F096F83B1D00221A605A609A60DA60BD
:1005DC001A610223BB610123BB621023FB6200235F
:1005EC007B6307F11803184601F070F80346002BE3
:1005FC0001D000F027F90F237B600023BB600023A0
:10060C00FB6000233B6100237B613B1D00211846EE
:10061C0001F0DCFA0346002B01D000F013F900BF07
:10062C004037BD4680BD000080B586B000AF07F1F5
:10063C00080300221A605A609A60DA603B46002276
:10064C001A605A601D4B4FF080421A601B4B40F2EF
:10065C001F325A60194B00229A60184B6322DA60E1
:10066C00164B00221A61154B00229A61134801F0B7
:10067C0015FC0346002B01D000F0E4F84FF4805336
:10068C00BB6007F1080319460C4801F0ABFD0346AB
:10069C00002B01D000F0D6F800233B6000237B60D8
:1006AC003B461946054801F073FF0346002B01D069
:1006BC0000F0C8F800BF1837BD4680BD0C01002003
:1006CC0080B586B000AF07F1080300221A605A60AB
:1006DC009A60DA60294B9B69284A43F004039361C2
:1006EC00264B9B6903F004037B607B68234B9B695F
:1006FC00224A43F008039361204B9B6903F00803E3
:10070C003B603B6800224FF47E711D4800F0C5FF32
:10071C00002240F2FF711B4800F0BFFF4FF47E73C4
:10072C00BB600123FB6000233B6102237B6107F16B
:10073C0008031946124800F01FFE40F2FF73BB601D
:10074C000123FB6000233B6102237B6107F108035B
:10075C0019460C4800F010FE4FF4E053BB60002328
:10076C00FB6000233B6107F108031946044800F0C5
:10077C0003FE00BF1837BD4680BD00BF001002400D
:10078C0000080140000C014080B500AF002000F0D3
:10079C0045FA0346002B14D0FA231946002000F02A
:1007AC00BDF9094B1B785A1CD1B2074A1170184677
:1007BC00FFF72EFE044B1B78042B02D1024B0022B8
:1007CC001A7000BF80BD00BFC400002080B483B08D
:1007DC0000AF03460A46FB711346BB71FB79174AFF
:1007EC00A2FB0323DB08DAB2154B1A70FA79134B10
:1007FC00A3FB0213D9080B469B000B445B00D31AD6
:10080C00DAB20F4B5A70BB790C4AA2FB0323DB08FC
:10081C00DAB20B4B9A70BA79084BA3FB0213D908C6
:10082C000B469B000B445B00D31ADAB2044BDA7014
:10083C0000BF0C37BD4680BC704700BFCDCCCCCCC4
:10084C000C00002080B400AF72B600BFFEE70000C1
:10085C0080B485B000AF154B9B69144A43F001037B
:10086C009361124B9B6903F00103BB60BB680F4B98
:10087C00DB690E4A43F08053D3610C4BDB6903F008
:10088C0080537B607B680A4B5B68FB60FB6823F0E2
:10089C00E063FB60FB6843F08063FB60044AFB6829
:1008AC00536000BF1437BD4680BC70470010024037
:1008BC000000014080B584B000AF78607B681B6895
:1008CC00B3F1804F13D10C4BDB690B4A43F001039E
:1008DC00D361094BDB6903F00103FB60FB68002269
:1008EC0000211C2000F011FD1C2000F02AFD00BF8F
:1008FC001037BD4680BD00BF0010024080B400AF71
:10090C00FEE780B400AFFEE780B400AFFEE780B432
:10091C0000AFFEE780B400AFFEE780B400AF00BFCD
:10092C00BD4680BC704780B400AF00BFBD4680BCE4
:10093C00704780B400AF00BFBD4680BC704780B527
:10094C0000AF00F0EFFB00BF80BD000080B500AF32
:10095C00024801F03FFB00BF80BD00BF0C0100202E
:10096C0080B582B000AF7860396001F07BFE034641
:10097C0016221A604FF0FF3318460837BD4680BD6B
:10098C0080B582B000AF78604FF0FF317868FFF728
:10099C00E7FFFEE780B586B000AF7860144A154BD0
:1009AC00D31A7B617B693B61134B1B68002B02D113
:1009BC00114B124A1A60104B1A687B6813443A693F
:1009CC009A4207D201F04EFE03460C221A604FF0F9
:1009DC00FF3309E0084B1B68FB60074B1A687B6808
:1009EC001344054A1360FB6818461837BD4680BD92
:1009FC000028002000040000C8000020680100202E
:100A0C0080B400AF00BFBD4680BC704780B586B0D7
:100A1C0000AFF860B9607A60FB681B68DB6A013371
:100A2C00FA681268926A013202FB03F3334AA2FBA2
:100A3C0003235B0A324A1360324A7B681360324AE2
:100A4C00BB6813602F4B1B689B00184601F048FED7
:100A5C0003461A462D4B1A602B4B1B689B001846FD
:100A6C0001F03EFE03461A46294B1A60254B1B68C3
:100A7C00184601F035FE03461A46264B1A60224BE7
:100A8C001B68184601F02CFE03461A46224B1A60CE
:100A9C0000237B610FE01D4B1A687B699B0013449C
:100AAC0000221A601B4B1A687B69134401221A70CE
:100ABC007B6901337B617A69124B1B689A42EAD3DA
:100ACC0000233B610FE0124B1A683B699B001344F7
:100ADC0000221A60104B1A683B69134401221A70E9
:100AEC003B6901333B613A69074B1B689A42EAD375
:100AFC0000BF00BF1837BD4680BD00BFD34D62108C
:100B0C00CC000020D0000020D4000020D800002011
:100B1C00DC000020E0000020E400002080B582B062
:100B2C0000AF03463960FB713B684FF47A7202FBED
:100B3C0003F3154A1268B3FBF2F102FB01F29B1AA4
:100B4C00002B01D000231AE0FA79104B1B689A4253
:100B5C0003D34FF0FF3001F08BFD0B4B1A680C4B9D
:100B6C001968FB799B000B443968B1FBF2F21A60EF
:100B7C00084B1A68FB79134400221A70012318469B
:100B8C000837BD4680BD00BFCC000020D40000203B
:100B9C00D8000020E000002080B582B000AF0346F2
:100BAC003960FB713B684FF47A7202FB03F3174A0E
:100BBC001268B3FBF2F102FB01F29B1A002B01D07D
:100BCC0000231EE0FA79124B1B689A4203D34FF0B4
:100BDC00FF3001F04DFD3B684FF47A7202FB03F1DC
:100BEC000A4B1A680B4B1868FB799B000344B1FB4A
:100BFC00F2F21A60084B1A68FB79134400221A703F
:100C0C00012318460837BD4680BD00BFCC0000202C
:100C1C00D4000020DC000020E400002080B582B06D
:100C2C0000AF0346FB71FA79084B1B689A4203D359
:100C3C004FF0FF3001F01CFD054B1A68FB79134493
:100C4C001B7818460837BD4680BD00BFD400002075
:100C5C00E000002080B582B000AF0346FB71FA794A
:100C6C00084B1B689A4203D34FF0FF3001F000FD94
:100C7C00054B1A68FB7913441B7818460837BD4698
:100C8C0080BD00BFD4000020E400002080B582B0FD
:100C9C0000AF0346FB71FA790C4B1B689A4203D3E5
:100CAC004FF0FF3001F0E4FC094B1A68FB799B0014
:100CBC0013441B68074A126802FB03F3064AA2FBA3
:100CCC0003239B0918460837BD4680BDD40000207D
:100CDC00DC000020CC000020D34D621080B584B025
:100CEC0000AF7860FFF706FB0023FB6020E02A4B87
:100CFC001A68FB689B0013441B68002B15D0264B0D
:100D0C001A68FB689B0013441A68013A1A60224B5C
:100D1C001A68FB689B0013441B68002B05D11F4B02
:100D2C001A68FB68134401221A70FB680133FB60DC
:100D3C00FA681B4B1B689A42D9D30023BB6020E096
:100D4C00184B1A68BB689B0013441B68002B15D00A
:100D5C00144B1A68BB689B0013441A68013A1A605A
:100D6C00104B1A68BB689B0013441B68002B05D101
:100D7C000D4B1A68BB68134401221A70BB6801330F
:100D8C00BB60BA68094B1B689A42D9D300BF00BF3D
:100D9C001037BD4680BD00BFD8000020E000002009
:100DAC00D0000020DC000020E4000020D400002053
:100DBC0080B582B000AF786039601D4A7B681360E3
:100DCC001C4A3B6813601C4B02221A701B4B0022FE
:100DDC001A70174B1B681A88154B1B6802331B883B
:100DEC0013439AB2124B1B6804331B8813439AB2F9
:100DFC000F4B1B6806331B8813439AB20C4B1B68B2
:100E0C0008331B8813439AB2094B1B680A331B889F
:100E1C0013439AB20A4B1A80094B1B8801221946BC
:100E2C00084800F03AFC00BF0837BD4680BD00BF43
:100E3C00EC000020F0000020E8000020E900002079
:100E4C00F40000200008014080B500AF7A4B1B78FD
:100E5C00022B4DD0022B72DC002B02D0012B23D0A5
:100E6C006DE00020FFF7F6FE0346002B62D0734BBB
:100E7C001B6801331B7819460020FFF78DFE6E4B63
:100E8C0001221A706E4B1B681B88012219466D4893
:100E9C0000F003FC6A4B1B6802331B8800221946C6
:100EAC00684800F0FAFB45E00020FFF7D3FE03464C
:100EBC00002B41D0614B1B6802331B781946002074
:100ECC00FFF76AFE5C4B02221A705D4B1B68023303
:100EDC001B88012219465B4800F0DFFB584B1B684E
:100EEC0004331B8800221946564800F0D6FB23E039
:100EFC000020FFF7AFFE0346002B1FD04F4B1B68A3
:100F0C001B7819460020FFF747FE4B4B00221A7046
:100F1C004B4B1B6804331B8801221946494800F0CF
:100F2C00BCFB474B1B681B8800221946454800F048
:100F3C00B4FB03E000BF02E000BF00E000BF424B87
:100F4C001B78022B29D0022B74DC002B49D0012BEF
:100F5C0070D10120FFF77EFE0346002B65D0374B86
:100F6C001B6805331B7819460120FFF715FE364B1D
:100F7C0002221A70324B1B6808331B880122194657
:100F8C00304800F08AFB2E4B1B680A331B8800226A
:100F9C0019462C4800F081FB47E00120FFF75AFE70
:100FAC000346002B43D0254B1B6803331B78194693
:100FBC000120FFF7F1FD244B00221A70204B1B6817
:100FCC000A331B88012219461E4800F066FB1C4B95
:100FDC001B6806331B88002219461A4800F05DFB7B
:100FEC0025E00120FFF736FE0346002B21D0134BE2
:100FFC001B6804331B7819460120FFF7CDFD124BFB
:10100C0001221A700E4B1B6806331B8801221946ED
:10101C000C4800F042FB0A4B1B6808331B8800226B
:10102C001946084800F039FB03E000BF02E000BF9E
:10103C0000E000BF00BF80BDE8000020F0000020F1
:10104C00EC00002000080140E90000200C480D498C
:10105C000D4A002302E0D458C4500433C4188C4207
:10106C00F9D30A4A0A4C002301E013600432A2426D
:10107C00FBD3FFF7C5FC01F00FFBFFF755FA7047E8
:10108C0000000020880000206C2800088800002048
:10109C0068010020FEE7000080B500AF084B1B681C
:1010AC00074A43F010031360032000F023F90F20CC
:1010BC0000F008F8FFF7CCFB0023184680BD00BFFA
:1010CC000020024080B582B000AF7860124B1A68E5
:1010DC00124B1B7819464FF47A73B3FBF1F3B2FB46
:1010EC00F3F3184600F03BF90346002B01D0012323
:1010FC000EE07B680F2B0AD8002279684FF0FF3086
:10110C0000F003F9064A7B681360002300E001231A
:10111C0018460837BD4680BD18000020200000206E
:10112C001C00002080B400AF054B1B781A46054B01
:10113C001B681344034A136000BFBD4680BC704754
:10114C00200000205401002080B400AF024B1B682B
:10115C001846BD4680BC70475401002080B485B051
:10116C0000AF78607B6803F00703FB600C4BDB6817
:10117C00BB60BA684FF6FF031340BB60FB681A02F2
:10118C00BB68134343F0BF6343F40033BB60044AB2
:10119C00BB68D36000BF1437BD4680BC704700BF2E
:1011AC0000ED00E080B400AF044BDB681B0A03F0D9
:1011BC0007031846BD4680BC704700BF00ED00E039
:1011CC0080B483B000AF0346FB7197F90730002B56
:1011DC000BDBFB7903F01F02064997F907305B091B
:1011EC00012000FA02F241F8232000BF0C37BD4663
:1011FC0080BC704700E100E080B483B000AF0346D0
:10120C003960FB7197F90730002B0ADB3B68DAB2C7
:10121C000C4997F907301201D2B20B4483F8002322
:10122C000AE03B68DAB20849FB7903F00F03043B90
:10123C001201D2B20B441A7600BF0C37BD4680BCEB
:10124C00704700BF00E100E000ED00E080B489B021
:10125C0000AFF860B9607A60FB6803F00703FB61CC
:10126C00FB69C3F10703042B28BF0423BB61FB6993
:10127C000433062B02D9FB69033B00E000237B619E
:10128C004FF0FF32BB6902FA03F3DA43BB681A4032
:10129C007B699A404FF0FF317B6901FA03F3D94324
:1012AC007B680B40134318462437BD4680BC7047FF
:1012BC0080B582B000AF78607B68013BB3F1807F72
:1012CC0001D301230FE00A4A7B68013B53600F21D5
:1012DC004FF0FF30FFF790FF054B00229A60044B54
:1012EC0007221A60002318460837BD4680BD00BF90
:1012FC0010E000E080B582B000AF78607868FFF74E
:10130C002DFF00BF0837BD4680BD80B586B000AF4D
:10131C000346B9607A60FB7300237B61FFF742FFE1
:10132C0078617A68B9687869FFF790FF024697F997
:10133C000F3011461846FFF75FFF00BF1837BD4648
:10134C0080BD80B582B000AF0346FB7197F90730C2
:10135C001846FFF735FF00BF0837BD4680BD80B586
:10136C0082B000AF78607868FFF7A2FF034618469A
:10137C000837BD4680BD000080B48BB000AF7860EC
:10138C00396000237B6200233B6248E101227B6AC7
:10139C0002FA03F3FB613B681B68FA691340BB61FB
:1013AC00BA69FB699A4240F037813B685B68A34A93
:1013BC0093425ED0A14A934275D8A14A934258D029
:1013CC009F4A93426FD89F4A934252D09D4A934270
:1013DC0069D89D4A93424CD09B4A934263D89B4A0E
:1013EC00934246D0994A93425DD8122B2AD8122B9D
:1013FC0059D801A252F823F07F14000859140008A0
:10140C006B140008AD140008B3140008B3140008E2
:10141C00B3140008B3140008B3140008B314000884
:10142C00B3140008B3140008B3140008B314000874
:10143C00B3140008B3140008B314000861140008B6
:10144C0075140008824A934213D02CE03B68DB6889
:10145C003B6229E03B68DB6804333B6224E03B6879
:10146C00DB6808333B621FE03B68DB680C333B6294
:10147C001AE03B689B68002B02D104233B6213E00B
:10148C003B689B68012B05D108233B627B68FA699A
:10149C001A6109E008233B627B68FA695A6103E030
:1014AC0000233B6200E000BFBB69FF2B01D87B68C7
:1014BC0001E07B6804337B61BB69FF2B02D87B6A3C
:1014CC009B0002E07B6A083B9B003B617B691A68CE
:1014DC000F213B6901FA03F3DB431A40396A3B697C
:1014EC0001FA03F31A437B691A603B685B6803F0EB
:1014FC008053002B00F09080564B9B69554A43F06B
:10150C0001039361534B9B6903F00103BB60BB6800
:10151C00514A7B6A9B08023352F82330FB607B6A8A
:10152C0003F003039B000F2202FA03F3DB43FA6878
:10153C001340FB607B68494A93420DD07B68484A54
:10154C00934207D07B68474A934201D1022304E0BF
:10155C00032302E0012300E000237A6A02F0030275
:10156C0092009340FA681343FB603B497B6A9B08EB
:10157C000233FA6841F823203B685B6803F480333C
:10158C00002B06D0384B1A683749BB6913430B60E4
:10159C0006E0354B1A68BB69DB43334913400B60DB
:1015AC003B685B6803F40033002B06D02E4B5A6863
:1015BC002D49BB6913434B6006E02B4B5A68BB6942
:1015CC00DB43294913404B603B685B6803F4801391
:1015DC00002B06D0244B9A682349BB6913438B60BC
:1015EC0006E0214B9A68BB69DB431F4913408B60B3
:1015FC003B685B6803F40013002B06D01A4BDA68C7
:10160C001949BB691343CB6006E0174BDA68BB6919
:10161C00DB4315491340CB607B6A01337B623B682B
:10162C001A687B6A22FA03F3002B7FF4AFAE00BF7B
:10163C0000BF2C37BD4680BC704700BF0000321085
:10164C0000003110000022100000211000001210C8
:10165C000000111000100240000001400008014081
:10166C00000C0140001001400004014080B485B022
:10167C0000AF78600B467B807B689A687B88134050
:10168C00002B02D00123FB7301E00023FB73FB7BD7
:10169C0018461437BD4680BC704780B483B000AF89
:1016AC0078600B467B8013467B707B78002B03D0D5
:1016BC007A887B681A6103E07B881A047B681A615C
:1016CC0000BF0C37BD4680BC7047000080B586B0AB
:1016DC0000AF78607B68002B01D101236CE27B6842
:1016EC001B6803F00103002B00F08780924B5B68B2
:1016FC0003F00C03042B0CD08F4B5B6803F00C0332
:10170C00082B12D18C4B5B6803F48033B3F5803F0C
:10171C000BD1894B1B6803F40033002B6CD07B6816
:10172C005B68002B68D1012346E27B685B68B3F5EC
:10173C00803F06D1804B1B687F4A43F48033136093
:10174C002EE07B685B68002B0CD17B4B1B687A4AC4
:10175C0023F480331360784B1B68774A23F480237F
:10176C0013601DE07B685B68B3F5A02F0CD1724B46
:10177C001B68714A43F4802313606F4B1B686E4ADD
:10178C0043F4803313600BE06B4B1B686A4A23F401
:10179C0080331360684B1B68674A23F48023136003
:1017AC007B685B68002B13D0FFF7CEFC386108E038
:1017BC00FFF7CAFC02463B69D31A642B01D90323F9
:1017CC00FAE15D4B1B6803F40033002BF0D014E0FE
:1017DC00FFF7BAFC386108E0FFF7B6FC02463B693C
:1017EC00D31A642B01D90323E6E1534B1B6803F492
:1017FC000033002BF0D100E000BF7B681B6803F0C6
:10180C000203002B63D04C4B5B6803F00C03002BE2
:10181C000BD0494B5B6803F00C03082B1CD1464BD7
:10182C005B6803F48033002B16D1434B1B6803F029
:10183C000203002B05D07B681B69012B01D001230F
:10184C00BAE13D4B1B6823F0F8027B685B69DB0057
:10185C00394913430B603AE07B681B69002B20D09D
:10186C00364B01221A60FFF76FFC386108E0FFF776
:10187C006BFC02463B69D31A022B01D903239BE173
:10188C002D4B1B6803F00203002BF0D02A4B1B6876
:10189C0023F0F8027B685B69DB00274913430B607C
:1018AC0015E0264B00221A60FFF74EFC386108E069
:1018BC00FFF74AFC02463B69D31A022B01D90323DA
:1018CC007AE11D4B1B6803F00203002BF0D17B68FF
:1018DC001B6803F00803002B3AD07B689B69002B34
:1018EC0019D0174B01221A60FFF72EFC386108E063
:1018FC00FFF72AFC02463B69D31A022B01D90323BA
:10190C005AE10D4B5B6A03F00203002BF0D001206F
:10191C0000F0A6FA1CE00A4B00221A60FFF714FC38
:10192C0038610FE0FFF710FC02463B69D31A022B1B
:10193C0008D9032340E100BF0010024000004242DE
:10194C00800442429E4B5B6A03F00203002BE9D1F8
:10195C007B681B6803F00403002B00F0A6800023B7
:10196C00FB75974BDB6903F08053002B0DD1944B27
:10197C00DB69934A43F08053D361914BDB6903F0ED
:10198C008053BB60BB680123FB758E4B1B6803F453
:10199C008073002B18D18B4B1B688A4A43F48073DD
:1019AC001360FFF7D1FB386108E0FFF7CDFB02466F
:1019BC003B69D31A642B01D90323FDE0814B1B68CF
:1019CC0003F48073002BF0D07B68DB68012B06D10D
:1019DC007B4B1B6A7A4A43F0010313622DE07B6850
:1019EC00DB68002B0CD1764B1B6A754A23F0010384
:1019FC001362734B1B6A724A23F0040313621CE0DC
:101A0C007B68DB68052B0CD16D4B1B6A6C4A43F071
:101A1C00040313626A4B1B6A694A43F001031362A5
:101A2C000BE0674B1B6A664A23F001031362644B9D
:101A3C001B6A634A23F0040313627B68DB68002B88
:101A4C0015D0FFF781FB38610AE0FFF77DFB0246FA
:101A5C003B69D31A41F28832934201D90323ABE09C
:101A6C00574B1B6A03F00203002BEED014E0FFF778
:101A7C006BFB38610AE0FFF767FB02463B69D31A40
:101A8C0041F28832934201D9032395E04C4B1B6AF7
:101A9C0003F00203002BEED1FB7D012B05D1484B4B
:101AAC00DB69474A23F08053D3617B68DB69002BE9
:101ABC0000F08180424B5B6803F00C03082B61D073
:101ACC007B68DB69022B46D13F4B00221A60FFF783
:101ADC003BFB386108E0FFF737FB02463B69D31A42
:101AEC00022B01D9032367E0354B1B6803F000730D
:101AFC00002BF0D17B681B6AB3F5803F08D1304BCB
:101B0C005B6823F400327B689B682D4913434B6060
:101B1C002B4B5B6823F474127B68196A7B685B6AD5
:101B2C000B43274913434B60274B01221A60FFF7E5
:101B3C000BFB386108E0FFF707FB02463B69D31A41
:101B4C00022B01D9032337E01D4B1B6803F00073F4
:101B5C00002BF0D02FE01C4B00221A60FFF7F4FA98
:101B6C00386108E0FFF7F0FA02463B69D31A022B02
:101B7C0001D9032320E0124B1B6803F00073002BE8
:101B8C00F0D118E07B68DB69012B01D1012313E054
:101B9C000B4B5B68FB60FB6803F480327B681B6A51
:101BAC009A4206D1FB6803F470127B685B6A9A4216
:101BBC0001D0012300E0002318461837BD4680BD34
:101BCC0000100240007000406000424280B584B0BA
:101BDC0000AF786039607B68002B01D10123D0E025
:101BEC006A4B1B6803F007033A689A4210D9674B9B
:101BFC001B6823F0070265493B6813430B60634B7A
:101C0C001B6803F007033A689A4201D00123B8E03D
:101C1C007B681B6803F00203002B20D07B681B68D9
:101C2C0003F00403002B05D0594B5B68584A43F46E
:101C3C00E06353607B681B6803F00803002B05D03E
:101C4C00534B5B68524A43F460535360504B5B6890
:101C5C0023F0F0027B689B684D4913434B607B6813
:101C6C001B6803F00103002B40D07B685B68012BE1
:101C7C0007D1474B1B6803F40033002B15D101230C
:101C8C007FE07B685B68022B07D1414B1B6803F03C
:101C9C000073002B09D1012373E03D4B1B6803F04B
:101CAC000203002B01D101236BE0394B5B6823F05D
:101CBC0003027B685B68364913434B60FFF744FAB9
:101CCC00F8600AE0FFF740FA0246FB68D31A41F2CB
:101CDC008832934201D9032353E02D4B5B6803F008
:101CEC000C027B685B689B009A42EBD1274B1B680C
:101CFC0003F007033A689A4210D2244B1B6823F076
:101D0C00070222493B6813430B60204B1B6803F00E
:101D1C0007033A689A4201D0012332E07B681B68C2
:101D2C0003F00403002B08D0194B5B6823F4E0622A
:101D3C007B68DB68164913434B607B681B6803F0B8
:101D4C000803002B09D0124B5B6823F460527B68AC
:101D5C001B69DB000E4913434B6000F021F802466F
:101D6C000B4B5B681B0903F00F030A49CB5C22FA8F
:101D7C0003F3094A1360094B1B681846FFF7A2F9D5
:101D8C00002318461037BD4680BD00BF002002401E
:101D9C000010024050280008180000201C000020F1
:101DAC0090B48AB000AF2A4B3C1D0FCB84E80F00D7
:101DBC0040F201233B800023FB610023BB61002325
:101DCC007B6200237B6100233B62224B5B68FB61DF
:101DDC00FB6903F00C03042B02D0082B03D02DE07D
:101DEC001D4B3B622DE0FB699B0C03F00F0307F1CD
:101DFC002802134413F8243C7B61FB6903F4803301
:101E0C00002B13D0134B5B685B0C03F0010307F141
:101E1C002802134413F8283CBB617B690E4A02FB71
:101E2C0003F2BB69B2FBF3F37B6204E07B690B4A00
:101E3C0002FB03F37B627B6A3B6202E0064B3B6274
:101E4C0000BF3B6A18462837BD4690BC704700BFA0
:101E5C00142800080010024000127A0000093D000E
:101E6C0080B485B000AF78600A4B1B680A4AA2FBAD
:101E7C0003235B0A7A6802FB03F3FB6000BFFB6879
:101E8C005A1EFA60002BF9D100BF00BF1437BD46B3
:101E9C0080BC704718000020D34D621080B582B012
:101EAC0000AF78607B68002B01D1012341E07B6897
:101EBC0093F83D30DBB2002B06D17B68002283F80F
:101ECC003C207868FEF7F6FC7B68022283F83D2004
:101EDC007B681A687B6804331946104600F06AFA6E
:101EEC007B68012283F846207B68012283F83E2020
:101EFC007B68012283F83F207B68012283F8402015
:101F0C007B68012283F841207B68012283F8422000
:101F1C007B68012283F843207B68012283F84420EC
:101F2C007B68012283F845207B68012283F83D20E1
:101F3C00002318460837BD4680BD000080B485B02C
:101F4C0000AF78607B6893F83D30DBB2012B01D099
:101F5C00012335E07B68022283F83D207B681B68F7
:101F6C00DA687B681B6842F00102DA607B681B68E8
:101F7C00164A934209D07B681B68B3F1804F04D09A
:101F8C007B681B68124A934211D17B681B689B6863
:101F9C0003F00703FB60FB68062B10D07B681B6803
:101FAC001A687B681B6842F001021A6007E07B68C4
:101FBC001B681A687B681B6842F001021A600023D8
:101FCC0018461437BD4680BC704700BF002C01403A
:101FDC000004004080B582B000AF78607B681B685D
:101FEC001B6903F00203022B22D17B681B68DB68A0
:101FFC0003F00203022B1BD17B681B686FF00202FB
:10200C001A617B6801221A777B681B689B6903F055
:10201C000303002B03D0786800F0B1F905E0786871
:10202C0000F0A4F9786800F0B3F97B6800221A7705
:10203C007B681B681B6903F00403042B22D17B68AB
:10204C001B68DB6803F00403042B1BD17B681B6843
:10205C006FF004021A617B6802221A777B681B6896
:10206C009B6903F44073002B03D0786800F087F968
:10207C0005E0786800F07AF9786800F089F97B68F7
:10208C0000221A777B681B681B6903F00803082B76
:10209C0022D17B681B68DB6803F00803082B1BD17B
:1020AC007B681B686FF008021A617B6804221A7740
:1020BC007B681B68DB6903F00303002B03D0786893
:1020CC0000F05DF905E0786800F050F9786800F0F0
:1020DC005FF97B6800221A777B681B681B6903F029
:1020EC001003102B22D17B681B68DB6803F01003F4
:1020FC00102B1BD17B681B686FF010021A617B6878
:10210C0008221A777B681B68DB6903F44073002B89
:10211C0003D0786800F033F905E0786800F026F910
:10212C00786800F035F97B6800221A777B681B68A9
:10213C001B6903F00103012B0ED17B681B68DB6864
:10214C0003F00103012B07D17B681B686FF00102C0
:10215C001A617868FEF7C2FD7B681B681B6903F087
:10216C008003802B0ED17B681B68DB6803F0800337
:10217C00802B07D17B681B686FF080021A6178682E
:10218C0000F067FA7B681B681B6903F04003402B67
:10219C000ED17B681B68DB6803F04003402B07D132
:1021AC007B681B686FF040021A61786800F0F9F8E0
:1021BC007B681B681B6903F02003202B0ED17B6806
:1021CC001B68DB6803F02003202B07D17B681B689E
:1021DC006FF020021A61786800F032FA00BF0837FD
:1021EC00BD4680BD80B584B000AF786039607B6837
:1021FC0093F83C30012B01D10223B3E07B68012220
:10220C0083F83C207B68022283F83D207B681B68A6
:10221C009B68FB60FB6823F07703FB60FB6823F48F
:10222C007F43FB607B681B68FA689A603B681B689D
:10223C00B3F5005F3ED0B3F5005F00F28780B3F5D5
:10224C00805F00F08580B3F5805F7FD8702B1AD04B
:10225C00702B7BD8602B50D0602B77D8502B3CD078
:10226C00502B73D8402B58D0402B6FD8302B64D0C8
:10227C00302B6BD8202B60D0202B67D8002B5CD058
:10228C00102B5AD062E07B6818683B6899683B68F1
:10229C005A683B68DB6800F05CF97B681B689B68DC
:1022AC00FB60FB6843F07703FB607B681B68FA6894
:1022BC009A604EE07B6818683B6899683B685A687E
:1022CC003B68DB6800F045F97B681B689A687B68A3
:1022DC001B6842F480429A603BE07B6818683B685C
:1022EC0059683B68DB681A4600F0BCF87B681B68D1
:1022FC005021184600F013F92BE07B6818683B68F6
:10230C0059683B68DB681A4600F0DAF87B681B6892
:10231C006021184600F003F91BE07B6818683B68E5
:10232C0059683B68DB681A4600F09CF87B681B68B0
:10233C004021184600F0F3F80BE07B681A683B6804
:10234C001B681946104600F0EAF802E000BF00E0F6
:10235C0000BF7B68012283F83D207B68002283F854
:10236C003C20002318461037BD4680BD80B483B096
:10237C0000AF786000BF0C37BD4680BC704780B49E
:10238C0083B000AF786000BF0C37BD4680BC70478F
:10239C0080B483B000AF786000BF0C37BD4680BC02
:1023AC00704780B483B000AF786000BF0C37BD4677
:1023BC0080BC704780B485B000AF786039607B68B2
:1023CC001B68FB607B68254A934207D07B68B3F19E
:1023DC00804F03D07B68224A934208D1FB6823F0DC
:1023EC007003FB603B685B68FA681343FB607B68B7
:1023FC001A4A934207D07B68B3F1804F03D07B68B5
:10240C00174A934208D1FB6823F44073FB603B6886
:10241C00DB68FA681343FB60FB6823F080023B68BF
:10242C005B691343FB607B68FA681A603B689A68C7
:10243C007B68DA623B681A687B689A627B68074A39
:10244C00934203D13B681A697B681A637B6801224B
:10245C005A6100BF1437BD4680BC7047002C014048
:10246C000004004080B487B000AFF860B9607A60B7
:10247C00FB681B6A7B61FB681B6A23F00102FB682B
:10248C001A62FB689B693B613B6923F0F0033B617B
:10249C007B681B013A6913433B617B6923F00A0398
:1024AC007B617A69BB6813437B61FB683A699A610B
:1024BC00FB687A691A6200BF1C37BD4680BC704746
:1024CC0080B487B000AFF860B9607A60FB681B6AB3
:1024DC0023F01002FB681A62FB689B697B61FB6846
:1024EC001B6A3B617B6923F470437B617B681B0334
:1024FC007A6913437B613B6923F0A0033B61BB68A2
:10250C001B013A6913433B61FB687A699A61FB686A
:10251C003A691A6200BF1C37BD4680BC704780B454
:10252C0085B000AF786039607B689B68FB60FB68A6
:10253C0023F07003FB603A68FB68134343F0070316
:10254C00FB607B68FA689A6000BF1437BD4680BC9C
:10255C00704780B487B000AFF860B9607A603B60B8
:10256C00FB689B687B617B6923F47F437B613B68E1
:10257C001A027B681A43BB6813437A6913437B6165
:10258C00FB687A699A6000BF1C37BD4680BC7047F7
:10259C0080B485B000AF786039607B6893F83C30CC
:1025AC00012B01D1022341E07B68012283F83C20FE
:1025BC007B68022283F83D207B681B685B68FB60AC
:1025CC007B681B689B68BB60FB6823F07003FB6037
:1025DC003B681B68FA681343FB607B681B68FA68EE
:1025EC005A607B681B68144A934209D07B681B684D
:1025FC00B3F1804F04D07B681B68104A93420CD116
:10260C00BB6823F08003BB603B685B68BA6813430C
:10261C00BB607B681B68BA689A607B68012283F890
:10262C003D207B68002283F83C2000231846143799
:10263C00BD4680BC704700BF002C01400004004028
:10264C0080B483B000AF786000BF0C37BD4680BC4F
:10265C00704780B483B000AF786000BF0C37BD46C4
:10266C0080BC7047014B1868704700BF24000020E5
:10267C0008B5074B044613B10021AFF30080054B9E
:10268C001868836A03B198472046FEF779F900BFB2
:10269C00000000006028000870B500260C4D0D4CA1
:1026AC00641BA410A64209D100F0A2F800260A4D22
:1026BC000A4C641BA410A64205D170BD55F8043B0E
:1026CC0098470136EEE755F8043B98470136F2E798
:1026DC00642800086428000864280008682800089A
:1026EC00024B0146186800F00BB800BF2400002014
:1026FC0003460244934200D1704703F8011BF9E7EB
:10270C00F8B5CD1C25F0030508350C2D38BF0C256C
:10271C00002D064601DBA94203D90C2333600020AF
:10272C00F8BD00F057F821490A6814469CB9204FAF
:10273C003B6823B92146304600F03CF83860294606
:10274C00304600F037F8431C23D10C23304633605D
:10275C0000F046F8E3E723685B1B17D40B2B03D977
:10276C0023601C44256004E06368A2420CBF0B602C
:10277C005360304600F034F804F10B00231D20F0B8
:10278C000700C21ACCD01B1AA350C9E722466468B2
:10279C00CCE7C41C24F00304A042E3D0211A304639
:1027AC0000F008F80130DDD1CFE700BFF8000020C1
:1027BC00FC00002038B50023054D044608462B606C
:1027CC00FEF7E8F8431C02D12B6803B1236038BD37
:1027DC0058010020014800F009B800BF600100203A
:1027EC00014800F004B800BF60010020704770473A
:1027FC00F8B500BFF8BC08BC9E467047F8B500BFE2
:08280C00F8BC08BC9E467047B1
:1028140002030405060708090A0B0C0D0E0F10101D
:102824000100020004000800100020004000000025
:1028340080000001000200040004000800100000F1
:102844001000400020008000000200010000000091
:102854000000000001020304060708092800002004
:042864003101000836
:042868000D01000856
:10286C00014F12064C24200F0004FF00000102044B
:10287C0009060309060300000024F4001000000000
:10288C0001000000280000200000000000000000F3
:10289C00000000000000000000000000000000002C
:1028AC00000000000000000000000000000000001C
:1028BC00000000000000000000000000000000000C
:1028CC0000000000000000000000000000000000FC
:1028DC0000000000000000000000000000000000EC
:0828EC000000000000000000E4
:040000050800105986
:00000001FF
