:020000040800F2
:10000000002800203D150008E50C0008EB0C000856
:10001000F10C0008F70C0008FD0C000800000000BF
:10002000000000000000000000000000030D0008B8
:100030000F0D0008000000001B0D0008270D000830
:100040008515000885150008851500088515000828
:100050008515000885150008851500088515000818
:100060008515000885150008851500088515000808
:1000700085150008851500088515000885150008F8
:1000800085150008851500088515000885150008E8
:1000900085150008851500088515000885150008D8
:1000A00085150008851500088515000885150008C8
:1000B000350D0008851500080000000085150008B2
:1000C00085150008000000000000000085150008EC
:1000D00000000000851500088515000800000000DC
:1000E000851500088515000885150008000000002A
:1000F0000000000000000000000000000000000000
:0C01000000000000000000005FF808F1A3
:10010C0010B5054C237833B9044B13B10448AFF345
:10011C0000800123237010BD90000020000000001F
:10012C00102D000808B5034B1BB103490348AFF36E
:10013C00008008BD0000000094000020102D000875
:10014C0080B487B000AFF860B9607A6000237B613F
:10015C000AE07B69FA681A447B69B9680B44127827
:10016C001A707B6901337B617A697B689A42F0DB98
:10017C0000BF00BF1C37BD4680BC704780B584B043
:10018C0000AF7860022302221946786800F02CFE3A
:10019C000423144A1449154800F088FB0221144822
:1001AC0000F0C4FA134A1449144801F03DF8022037
:1001BC0002F020FD03461A46114B1A600023FB6027
:1001CC0008E00F4B1A68FB68134400221A70FB6896
:1001DC000133FB60FB68012BF3DD00BF00BF103760
:1001EC00BD4680BD00000020382D0008482D0008B9
:1001FC00502D00080C00002004000020542D000895
:10020C001401002080B582B000AF00237B6032E087
:10021C001D4B1A687B6813441B78002B02D0012BF2
:10022C000FD025E07B68DBB2184600F01FFB0346BD
:10023C00002B1AD0144B1A687B68134401221A70D5
:10024C0013E07B68DBB2184600F010FB0346002B72
:10025C000DD10D4B1A687B68134400221A707B6811
:10026C00DBB2184600F064F801E000BF00E000BF0C
:10027C007B6801337B607B68012BC9DD00BF00BF4D
:10028C000837BD4680BD00BF1401002098B500AFF3
:10029C00254B1B78072B43D801A252F823F000BF43
:1002AC00CD020008EF020008EF020008EF02000880
:1002BC000703000807030008070300081F030008D2
:1002CC0001F004F8002000F0F1FE0346DCB201203E
:1002DC0000F0ECFE0346DBB21946204600F094F821
:1002EC001EE0114B1B78013B104AD35C02211846CF
:1002FC0000F08AF800F0CEF912E00B4B1B78043BAF
:10030C000A4AD35C0321184600F07EF800F0C2F9CB
:10031C0006E00421042000F077F800F0BBF900BFE0
:10032C0000F0AEF800BF98BDAC0000200C0000201F
:10033C0080B582B000AF0346FB71FB79002B02D075
:10034C00012B37D053E02C4B1B78002B02D0072B02
:10035C0009D01FE00121002000F0D0FE0121012076
:10036C0000F0CCFE17E0254B1B78002B05D0234B5F
:10037C0000221A7001F0D0F804E00622204921482E
:10038C00FFF7DEFE0021002000F0B8FE0021012066
:10039C0000F0B4FE00BF01F09DF8174B1B78072B43
:1003AC0004D0154B1B780133DBB200E00023124A5A
:1003BC0013701CE0104B1B78072B12D0072B14DC8E
:1003CC00032B02DC002B04DC0FE0043B022B0CD8CB
:1003DC0003E00B4800F076F808E0094800F0E6F876
:1003EC0004E0064B01221A7000E000BF00BF00BF02
:1003FC000837BD4680BD00BFAC000020AD0000201A
:10040C000C0000200400002080B483B000AF034631
:10041C000A46FB711346BB71FB79174AA2FB0323F7
:10042C00DB08DAB2154B1A70FA79134BA3FB0213E3
:10043C00D9080B469B000B445B00D31ADAB20F4B66
:10044C005A70BB790C4AA2FB0323DB08DAB20B4BC4
:10045C009A70BA79084BA3FB0213D9080B469B0080
:10046C000B445B00D31ADAB2044BDA7000BF0C37C2
:10047C00BD4680BC704700BFCDCCCCCC000000206A
:10048C0080B500AF002000F0D9FD0346002B14D03E
:10049C00FA231946002000F051FD094B1B785A1C19
:1004AC00D1B2074A1170184600F04CFA044B1B7875
:1004BC00042B02D1024B00221A7000BF80BD00BF7A
:1004CC00AE00002080B483B000AF7860364B1B7850
:1004DC00032B4BD0032B5BDC012B02D0022B23D044
:1004EC0056E07B6801331B78012B53D97B680333AF
:1004FC001B78022B4ED97B681B780133DAB27B68F0
:10050C001A707B6801331A78013AD2B21A707B6880
:10051C0003331A78013AD2B21A707B6804331A7812
:10052C000132D2B21A7035E07B681B78022B33D9BA
:10053C007B6804331B78012B2ED97B6801331A7826
:10054C000132D2B21A707B681B78013BDAB27B683D
:10055C001A707B6804331A78013AD2B21A707B682D
:10056C0003331A780132D2B21A7015E07B6801336A
:10057C001B78012B12D97B6802331A780132D2B264
:10058C001A707B6801331A78013AD2B21A7005E0FE
:10059C0000BF04E000BF02E000BF00E000BF00BFEE
:1005AC000C37BD4680BC7047AC00002080B483B0D3
:1005BC0000AF7860364B1B78062B4BD0062B5BDCE0
:1005CC00042B02D0052B22D056E07B681B78022B23
:1005DC0054D97B6801331B78012B4FD97B681B786E
:1005EC00013BDAB27B681A707B6801331A780132EE
:1005FC00D2B21A707B6803331A780132D2B21A70F5
:10060C007B6804331A78013AD2B21A7036E07B68F0
:10061C0001331B78012B33D97B6803331B78022BF6
:10062C002ED97B6801331A78013AD2B21A707B68E2
:10063C001B780133DAB27B681A707B6804331A7842
:10064C000132D2B21A707B6803331A78013AD2B2F3
:10065C001A7015E07B6802331B78012B12D97B686A
:10066C0002331A78013AD2B21A707B6801331A78C5
:10067C000132D2B21A7005E000BF04E000BF02E004
:10068C0000BF00E000BF00BF0C37BD4680BC704708
:10069C00AC00002080B500AF224B1B78002B3ED065
:1006AC00012000F0CBFC0346002B39D04FF4FA7339
:1006BC001946012000F042FC1A4B1B78012B03D089
:1006CC00184B1B78042B04D19021174801F06FFABA
:1006DC0026E0144B1B78022B03D0124B1B78052BF6
:1006EC0005D14FF41071104801F061FA18E00D4B70
:1006FC001B78032B03D00B4B1B78062B05D14FF427
:10070C009071094801F053FA0AE0064B1B78072B4D
:10071C0006D14FF47C71044801F049FA00E000BFA7
:10072C0080BD00BFAC0000200008014080B584B043
:10073C0000AF78603960214A3B681360204A7B68BF
:10074C0013601E4B1B68184602F054FA03461A46F7
:10075C001C4B1A60194B1B68184602F04BFA0346E7
:10076C001A46194B1A60154B1B68184602F042FAD0
:10077C0003461A46154B1A600023FB6014E0114B1C
:10078C001A68FB68134401221A700F4B1A68FB6835
:10079C00134401221A700D4B1A68FB681344012292
:1007AC001A70FB680133FB60FA68044B1B689A42B1
:1007BC00E5D300BF00BF1037BD4680BD1801002037
:1007CC001C010020B0000020B4000020B800002064
:1007DC0090B583B000AF0023FB7131E01D4B1A685C
:1007EC00FB791A441C4B1968FB790B4412781A706C
:1007FC001A4B1A68FB795B0013441988154B1A685D
:10080C00FB79D418164801F0A3F903462370114B59
:10081C001A68FB7913441A780F4B1968FB790B444F
:10082C001B789A4209D10B4B1A68FB791A440D4B71
:10083C001968FB790B4412781A70FB790133FB7140
:10084C00FA79094B1B689A42C8D300BF00BF0C371A
:10085C00BD4690BDB4000020B80000201C01002053
:10086C0000080140B00000201801002080B483B0C3
:10087C0000AF0346FB71FA790A4B1B689A4201D30D
:10088C00002309E0084B1A68FB7913441B78002BF2
:10089C000CBF01230023DBB218460C37BD4680BCCD
:1008AC00704700BF18010020B000002080B485B054
:1008BC0000AFF860B9607A603B601D4A3B6813601A
:1008CC001C4AFB6813601C4ABB6813601B4A7B689C
:1008DC001360194B1B681A88174B1B6802331B8853
:1008EC0013439AB2144B1B6804331B8813439AB2FC
:1008FC00114B1B6806331B8813439AB20E4B1B68B3
:10090C0008331B8813439AB20B4B1B680A331B88A2
:10091C0013439AB2084B1B680C331B8813439AB2CF
:10092C00074B1A8000BF1437BD4680BC704700BF10
:10093C00BC000020C4000020C0000020C800002023
:10094C00CC00002080B586B000AF78602B4B1B88A4
:10095C00012219462A4801F012F92A4B1A687B68C1
:10096C0013441B781A46284B9B5CFB7300237B615A
:10097C0015E0FA7B40217B6941FA03F31340002B0D
:10098C000AD1224B1A687B695B0013441B88002236
:10099C0019461B4801F0F3F87B6901337B617B69D5
:1009AC00062BE6DD00233B611DE03B697A689A4229
:1009BC000BD1174B1A683B695B0013441B88002250
:1009CC0019460F4801F0DBF80AE0114B1A683B6935
:1009DC005B0013441B8801221946094801F0CFF82B
:1009EC003B6901333B613A690A4B1B689A42DCD381
:1009FC0000BF00BF1837BD4680BD00BFCC00002033
:100A0C00000C0140C800002014000020C000002091
:100A1C00C4000020BC00002080B500AF00F0AEFD8B
:100A2C0000F012F800F098F800F04AF8054801F0D0
:100A3C000FFD0448FFF7A2FBFFF7E4FBFFF726FCD2
:100A4C00FAE700BF2001002080B590B000AF07F19D
:100A5C00180328220021184602F0D4F83B1D00226E
:100A6C001A605A609A60DA601A610223BB61012332
:100A7C00BB621023FB6200237B6307F1180318464B
:100A8C0001F0AEF80346002B01D000F0C9F80F239B
:100A9C007B600023BB600023FB6000233B610023D1
:100AAC007B613B1D0021184601F01AFB0346002B0D
:100ABC0001D000F0B5F800BF4037BD4680BD000046
:100ACC0080B586B000AF07F1080300221A605A60A7
:100ADC009A60DA603B4600221A605A601D4B4FF058
:100AEC0080421A601B4B40F21F325A60194B002295
:100AFC009A60184B6322DA60164B00221A61154B70
:100B0C0000229A61134801F053FC0346002B01D0DC
:100B1C0000F086F84FF48053BB6007F108031946C8
:100B2C000C4801F0E9FD0346002B01D000F078F8E9
:100B3C0000233B6000237B603B461946054801F0CF
:100B4C00B1FF0346002B01D000F06AF800BF183744
:100B5C00BD4680BD2001002080B586B000AF07F1F6
:100B6C00080300221A605A609A60DA60294B9B696C
:100B7C00284A43F004039361264B9B6903F004035A
:100B8C007B607B68234B9B69224A43F0080393618B
:100B9C00204B9B6903F008033B603B6800224FF439
:100BAC007E711D4800F0EBFF002240F2FF711B48E4
:100BBC0000F0E5FF4FF47E73BB600123FB60002364
:100BCC003B6102237B6107F108031946124800F0D0
:100BDC0045FE40F2FF73BB600123FB6000233B61C9
:100BEC0002237B6107F1080319460C4800F036FE1E
:100BFC004FF47053BB600023FB6000233B6107F193
:100C0C0008031946044800F029FE00BF1837BD46FA
:100C1C0080BD00BF0010024000080140000C0140E4
:100C2C0080B400AF72B600BFFEE7000080B485B0A0
:100C3C0000AF154B9B69144A43F001039361124BAF
:100C4C009B6903F00103BB60BB680F4BDB690E4A69
:100C5C0043F08053D3610C4BDB6903F080537B6012
:100C6C007B680A4B5B68FB60FB6823F0E063FB600E
:100C7C00FB6843F08063FB60044AFB68536000BF71
:100C8C001437BD4680BC7047001002400000014084
:100C9C0080B584B000AF78607B681B68B3F1804F7F
:100CAC0013D10C4BDB690B4A43F00103D361094BA5
:100CBC00DB6903F00103FB60FB68002200211C20B0
:100CCC0000F095FD1C2000F0AEFD00BF1037BD46B6
:100CDC0080BD00BF0010024080B400AFFEE780B4BE
:100CEC0000AFFEE780B400AFFEE780B400AFFEE7D4
:100CFC0080B400AFFEE780B400AF00BFBD4680BC3F
:100D0C00704780B400AF00BFBD4680BC704780B454
:100D1C0000AF00BFBD4680BC704780B500AF00F08F
:100D2C0073FC00BF80BD000080B500AF024801F02D
:100D3C00DBFB00BF80BD00BF2001002080B582B06E
:100D4C0000AF7860396001F017FF034616221A6075
:100D5C004FF0FF3318460837BD4680BD80B582B0D2
:100D6C0000AF78604FF0FF317868FFF7E7FFFEE7E0
:100D7C0080B586B000AF7860144A154BD31A7B61EE
:100D8C007B693B61134B1B68002B02D1114B124A40
:100D9C001A60104B1A687B6813443A699A4207D25E
:100DAC0001F0EAFE03460C221A604FF0FF3309E013
:100DBC00084B1B68FB60074B1A687B681344054A99
:100DCC001360FB6818461837BD4680BD002800200C
:100DDC0000040000D00000208001002080B400AF8F
:100DEC0000BFBD4680BC704780B586B000AFF860D0
:100DFC00B9607A60FB681B68DB6A0133FA681268B9
:100E0C00926A013202FB03F3424AA2FB03235B0A00
:100E1C00414A1360414A7B681360414ABB681360C6
:100E2C003E4B1B689B00184601F0E4FE03461A4635
:100E3C003C4B1A603A4B1B689B00184601F0DAFEDB
:100E4C0003461A46384B1A60344B1B68184601F09F
:100E5C00D1FE03461A46354B1A60314B1B681846B7
:100E6C0001F0C8FE03461A46314B1A602B4B1B6827
:100E7C00184601F0BFFE03461A462E4B1A60284B4B
:100E8C001B68184601F0B6FE03461A462A4B1A6038
:100E9C0000237B6115E0234B1A687B699B0013448C
:100EAC0000221A60214B1A687B69134401221A70C4
:100EBC00204B1A687B69134400221A707B6901333A
:100ECC007B617A69154B1B689A42E4D300233B6122
:100EDC0015E0154B1A683B699B00134400221A60FD
:100EEC00134B1A683B69134401221A70124B1A688F
:100EFC003B69134400221A703B6901333B613A6928
:100F0C00074B1B689A42E4D300BF00BF1837BD469D
:100F1C0080BD00BFD34D6210D4000020D80000204B
:100F2C00DC000020E0000020E4000020E8000020AD
:100F3C00EC000020F0000020F400002080B582B00E
:100F4C0000AF03463960FB713B684FF47A7202FBC9
:100F5C0003F3154A1268B3FBF2F102FB01F29B1A80
:100F6C00002B01D000231AE0FA79104B1B689A422F
:100F7C0003D34FF0FF3001F005FE0B4B1A680C4BFE
:100F8C001968FB799B000B443968B1FBF2F21A60CB
:100F9C00084B1A68FB79134400221A700123184677
:100FAC000837BD4680BD00BFD4000020DC00002007
:100FBC00E0000020E800002080B582B000AF0346BE
:100FCC003960FB713B684FF47A7202FB03F3174AEA
:100FDC001268B3FBF2F102FB01F29B1A002B01D059
:100FEC0000231EE0FA79124B1B689A4203D34FF090
:100FFC00FF3001F0C7FD3B684FF47A7202FB03F13E
:10100C000A4B1A680B4B1868FB799B000344B1FB25
:10101C00F2F21A60084B1A68FB79134400221A701A
:10102C00012318460837BD4680BD00BFD400002000
:10103C00DC000020E4000020EC00002080B582B031
:10104C0000AF0346FB71FA79084B1B689A4203D335
:10105C004FF0FF3001F096FD054B1A68FB791344F5
:10106C001B7818460837BD4680BD00BFDC00002049
:10107C00E800002080B582B000AF0346FB71FA791E
:10108C00084B1B689A4203D34FF0FF3001F07AFDF6
:10109C00054B1A68FB7913441B7818460837BD4674
:1010AC0080BD00BFDC000020EC00002080B582B0C9
:1010BC0000AF0346FB71FA790C4B1B689A4203D3C1
:1010CC004FF0FF3001F05EFD094B1A68FB799B0075
:1010DC0013441B68074A126802FB03F3064AA2FB7F
:1010EC0003239B0918460837BD4680BDDC00002051
:1010FC00E4000020D4000020D34D621080B483B0F3
:10110C0000AF03460A46FB711346BB71054B1A68C8
:10111C00FB791344BA791A7000BF0C37BD4680BCFA
:10112C00704700BFF400002080B584B000AF786039
:10113C00FFF74EFB0023FB6029E0334B1A68FB687A
:10114C0013441B78012B1ED0304B1A68FB689B0094
:10115C0013441B68002B17D02C4B1A68FB689B00A0
:10116C0013441A68013A1A60284B1A68FB689B00F2
:10117C0013441B68002B07D1254B1A68FB681344DA
:10118C0001221A7000E000BFFB680133FB60FA68B3
:10119C00204B1B689A42D0D30023BB6029E01E4B26
:1011AC001A68BB6813441B78012B1ED01B4B1A68A2
:1011BC00BB689B0013441B68002B17D0174B1A6895
:1011CC00BB689B0013441A68013A1A60134B1A68E7
:1011DC00BB689B0013441B68002B07D1104B1A688B
:1011EC00BB68134401221A7000E000BFBB680133D6
:1011FC00BB60BA680B4B1B689A42D0D300BF00BFD0
:10120C001037BD4680BD00BFF0000020E00000207C
:10121C00E8000020D8000020F4000020E4000020AA
:10122C00EC000020DC00002080B584B000AFF8603A
:10123C00B9607A601E4AFB6813601E4ABB68136073
:10124C001D4A7B6813601D4B02221A701C4B002236
:10125C001A70174B1B681A88154B1B6802331B88B6
:10126C0013439AB2124B1B6804331B8813439AB274
:10127C000F4B1B6806331B8813439AB20C4B1B682D
:10128C0008331B8813439AB2094B1B680A331B881B
:10129C0013439AB20B4B1A800A4B1B880122194636
:1012AC00094800F06CFC00BF1037BD4680BD00BF84
:1012BC00FC0000200001002004010020F8000020A8
:1012CC00F9000020080100200008014080B500AFA3
:1012DC007A4B1B78032B74D801A252F823F000BF71
:1012EC00FD12000837130008731300089F13000841
:1012FC000020FFF7BFFE0346002B0DD0704B1B6880
:10130C0001331B7819460020FFF756FE6B4B012268
:10131C001A7000F0DFF854E06A4B1B681B8800223F
:10132C001946694800F02BFC4BE00020FFF7A2FEA9
:10133C000346002B0DD0624B1B6802331B781946F9
:10134C000020FFF739FE5D4B02221A7000F0C2F844
:10135C0037E05C4B1B6802331B88002219465A4845
:10136C0000F00DFC2DE00020FFF784FE0346002B5F
:10137C0005D0524B03221A7000F0ACF821E0514B0F
:10138C001B6804331B88002219464F4800F0F7FBFA
:10139C0017E000F0AFF80346002B07D04B4B1B684F
:1013AC00474A116806221846FEF7CAFE444B1B68D2
:1013BC001B7819460020FFF7FFFD404B00221A70E6
:1013CC0000BF434B1B78032B75D801A252F823F0B6
:1013DC0065140008ED130008291400089114000886
:1013EC000120FFF747FE0346002B0DD0344B1B6842
:1013FC0005331B7819460120FFF7DEFD344B022222
:10140C001A7000F067F856E02E4B1B6808331B88E7
:10141C00002219462C4800F0B2FB4CE00120FFF7EB
:10142C0029FE0346002B0DD0254B1B6803331B787C
:10143C0019460120FFF7C0FD254B00221A7000F061
:10144C0049F838E01F4B1B680A331B8800221946E9
:10145C001D4800F094FB2EE00120FFF70BFE034625
:10146C00002B05D01A4B03221A7000F033F822E03F
:10147C00144B1B6806331B8800221946124800F0D7
:10148C007EFB18E000F036F80346002B07D00F4B1C
:10149C001B680B4A116806221846FEF751FE084BD2
:1014AC001B6804331B7819460120FFF785FD084B98
:1014BC0001221A7000BF00BF80BD00BFF8000020E1
:1014CC0000010020FC000020000801400401002065
:1014DC00F900002080B500AF044B1B88012219468F
:1014EC00034800F04CFB00BF80BD00BF080100208A
:1014FC000008014080B400AF064B1B78002B04D0D1
:10150C00044B00221A70012300E000231846BD464C
:10151C0080BC70470A01002080B400AF034B01224D
:10152C001A7000BFBD4680BC704700BF0A01002086
:10153C000C480D490D4A002302E0D458C450043322
:10154C00C4188C42F9D30A4A0A4C002301E01360F8
:10155C000432A242FBD3FFF741FC01F027FBFFF75B
:10156C005BFA704700000020900000207C2D0008E2
:10157C00900000207C010020FEE7000080B500AF49
:10158C00084B1B68074A43F010031360032000F05C
:10159C0023F90F2000F008F8FFF748FB002318464A
:1015AC0080BD00BF0020024080B582B000AF7860E3
:1015BC00124B1A68124B1B7819464FF47A73B3FB13
:1015CC00F1F3B2FBF3F3184600F03BF90346002BA2
:1015DC0001D001230EE07B680F2B0AD8002279681A
:1015EC004FF0FF3000F003F9064A7B6813600023CC
:1015FC0000E0012318460837BD4680BD20000020BE
:10160C00280000202400002080B400AF054B1B787C
:10161C001A46054B1B681344034A136000BFBD46B2
:10162C0080BC7047280000206801002080B400AF07
:10163C00024B1B681846BD4680BC704768010020F1
:10164C0080B485B000AF78607B6803F00703FB6063
:10165C000C4BDB68BB60BA684FF6FF031340BB60F2
:10166C00FB681A02BB68134343F0BF6343F40033B7
:10167C00BB60044ABB68D36000BF1437BD4680BC56
:10168C00704700BF00ED00E080B400AF044BDB6896
:10169C001B0A03F007031846BD4680BC704700BF09
:1016AC0000ED00E080B483B000AF0346FB7197F906
:1016BC000730002B0BDBFB7903F01F02064997F96F
:1016CC0007305B09012000FA02F241F8232000BF29
:1016DC000C37BD4680BC704700E100E080B483B09D
:1016EC0000AF03463960FB7197F90730002B0ADB1A
:1016FC003B68DAB20C4997F907301201D2B20B44AD
:10170C0083F800230AE03B68DAB20849FB7903F05E
:10171C000F03043B1201D2B20B441A7600BF0C37F4
:10172C00BD4680BC704700BF00E100E000ED00E06A
:10173C0080B489B000AFF860B9607A60FB6803F0E0
:10174C000703FB61FB69C3F10703042B28BF0423C8
:10175C00BB61FB690433062B02D9FB69033B00E038
:10176C0000237B614FF0FF32BB6902FA03F3DA43CB
:10177C00BB681A407B699A404FF0FF317B6901FAD4
:10178C0003F3D9437B680B40134318462437BD46FB
:10179C0080BC704780B582B000AF78607B68013B3D
:1017AC00B3F1807F01D301230FE00A4A7B68013B30
:1017BC0053600F214FF0FF30FFF790FF054B0022D5
:1017CC009A60044B07221A60002318460837BD465E
:1017DC0080BD00BF10E000E080B582B000AF786043
:1017EC007868FFF72DFF00BF0837BD4680BD80B578
:1017FC0086B000AF0346B9607A60FB7300237B614F
:10180C00FFF742FF78617A68B9687869FFF790FF53
:10181C00024697F90F3011461846FFF75FFF00BFDD
:10182C001837BD4680BD80B582B000AF0346FB7152
:10183C0097F907301846FFF735FF00BF0837BD464C
:10184C0080BD80B582B000AF78607868FFF7A2FFEA
:10185C00034618460837BD4680BD000080B48BB0E7
:10186C0000AF7860396000237B6200233B6248E163
:10187C0001227B6A02FA03F3FB613B681B68FA697D
:10188C001340BB61BA69FB699A4240F037813B68EF
:10189C005B68A34A93425ED0A14A934275D8A14A91
:1018AC00934258D09F4A93426FD89F4A934252D04A
:1018BC009D4A934269D89D4A93424CD09B4A93428D
:1018CC0063D89B4A934246D0994A93425DD8122BD7
:1018DC002AD8122B59D801A252F823F06319000808
:1018EC003D1900084F1900089119000897190008B4
:1018FC0097190008971900089719000897190008FC
:10190C0097190008971900089719000897190008EB
:10191C0097190008971900089719000897190008DB
:10192C004519000859190008824A934213D02CE03B
:10193C003B68DB683B6229E03B68DB6804333B6255
:10194C0024E03B68DB6808333B621FE03B68DB68E4
:10195C000C333B621AE03B689B68002B02D10423DA
:10196C003B6213E03B689B68012B05D108233B626B
:10197C007B68FA691A6109E008233B627B68FA69A3
:10198C005A6103E000233B6200E000BFBB69FF2B00
:10199C0001D87B6801E07B6804337B61BB69FF2B5A
:1019AC0002D87B6A9B0002E07B6A083B9B003B6190
:1019BC007B691A680F213B6901FA03F3DB431A4078
:1019CC00396A3B6901FA03F31A437B691A603B6875
:1019DC005B6803F08053002B00F09080564B9B69A2
:1019EC00554A43F001039361534B9B6903F0010388
:1019FC00BB60BB68514A7B6A9B08023352F82330A8
:101A0C00FB607B6A03F003039B000F2202FA03F3D3
:101A1C00DB43FA681340FB607B68494A93420DD064
:101A2C007B68484A934207D07B68474A934201D16E
:101A3C00022304E0032302E0012300E000237A6A7E
:101A4C0002F0030292009340FA681343FB603B4997
:101A5C007B6A9B080233FA6841F823203B685B6879
:101A6C0003F48033002B06D0384B1A683749BB6916
:101A7C0013430B6006E0354B1A68BB69DB433349F3
:101A8C0013400B603B685B6803F40033002B06D0FB
:101A9C002E4B5A682D49BB6913434B6006E02B4B08
:101AAC005A68BB69DB43294913404B603B685B6850
:101ABC0003F48013002B06D0244B9A682349BB698E
:101ACC0013438B6006E0214B9A68BB69DB431F49CB
:101ADC0013408B603B685B6803F40013002B06D04B
:101AEC001A4BDA681949BB691343CB6006E0174BF4
:101AFC00DA68BB69DB4315491340CB607B6A013361
:101B0C007B623B681A687B6A22FA03F3002B7FF432
:101B1C00AFAE00BF00BF2C37BD4680BC704700BFC6
:101B2C0000003210000031100000221000002110C3
:101B3C0000001210000011100010024000000140C3
:101B4C0000080140000C014000100140000401405D
:101B5C0080B485B000AF78600B467B807B689A6858
:101B6C007B881340002B02D00123FB7301E0002380
:101B7C00FB73FB7B18461437BD4680BC704780B4A2
:101B8C0083B000AF78600B467B8013467B707B780C
:101B9C00002B03D07A887B681A6103E07B881A04D7
:101BAC007B681A6100BF0C37BD4680BC704780B49F
:101BBC0085B000AF78600B467B807B68DB68FB6090
:101BCC007A88FB6813401A04FB68D9437B880B4066
:101BDC001A437B681A6100BF1437BD4680BC70473E
:101BEC0080B586B000AF78607B68002B01D10123F3
:101BFC006CE27B681B6803F00103002B00F087800C
:101C0C00924B5B6803F00C03042B0CD08F4B5B687E
:101C1C0003F00C03082B12D18C4B5B6803F480335C
:101C2C00B3F5803F0BD1894B1B6803F40033002BB9
:101C3C006CD07B685B68002B68D1012346E27B6823
:101C4C005B68B3F5803F06D1804B1B687F4A43F439
:101C5C00803313602EE07B685B68002B0CD17B4BD0
:101C6C001B687A4A23F480331360784B1B68774ADD
:101C7C0023F4802313601DE07B685B68B3F5A02F11
:101C8C000CD1724B1B68714A43F4802313606F4B69
:101C9C001B686E4A43F4803313600BE06B4B1B687C
:101CAC006A4A23F480331360684B1B68674A23F439
:101CBC00802313607B685B68002B13D0FFF7B6FCA6
:101CCC00386108E0FFF7B2FC02463B69D31A642B7B
:101CDC0001D90323FAE15D4B1B6803F40033002B9D
:101CEC00F0D014E0FFF7A2FC386108E0FFF79EFC8F
:101CFC0002463B69D31A642B01D90323E6E1534B0B
:101D0C001B6803F40033002BF0D100E000BF7B68AC
:101D1C001B6803F00203002B63D04C4B5B6803F091
:101D2C000C03002B0BD0494B5B6803F00C03082B06
:101D3C001CD1464B5B6803F48033002B16D1434B0C
:101D4C001B6803F00203002B05D07B681B69012B79
:101D5C0001D00123BAE13D4B1B6823F0F8027B68EC
:101D6C005B69DB00394913430B603AE07B681B6904
:101D7C00002B20D0364B01221A60FFF757FC38613C
:101D8C0008E0FFF753FC02463B69D31A022B01D93A
:101D9C0003239BE12D4B1B6803F00203002BF0D0B7
:101DAC002A4B1B6823F0F8027B685B69DB00274930
:101DBC0013430B6015E0264B00221A60FFF736FC2C
:101DCC00386108E0FFF732FC02463B69D31A022B5C
:101DDC0001D903237AE11D4B1B6803F00203002B8E
:101DEC00F0D17B681B6803F00803002B3AD07B68AA
:101DFC009B69002B19D0174B01221A60FFF716FCB8
:101E0C00386108E0FFF712FC02463B69D31A022B3B
:101E1C0001D903235AE10D4B5B6A03F00203002B3B
:101E2C00F0D0012000F0A6FA1CE00A4B00221A6048
:101E3C00FFF7FCFB38610FE0FFF7F8FB02463B694C
:101E4C00D31A022B08D9032340E100BF0010024033
:101E5C0000004242800442429E4B5B6A03F0020344
:101E6C00002BE9D17B681B6803F00403002B00F006
:101E7C00A6800023FB75974BDB6903F08053002B86
:101E8C000DD1944BDB69934A43F08053D361914B52
:101E9C00DB6903F08053BB60BB680123FB758E4B81
:101EAC001B6803F48073002B18D18B4B1B688A4A78
:101EBC0043F480731360FFF7B9FB386108E0FFF758
:101ECC00B5FB02463B69D31A642B01D90323FDE011
:101EDC00814B1B6803F48073002BF0D07B68DB68AC
:101EEC00012B06D17B4B1B6A7A4A43F00103136228
:101EFC002DE07B68DB68002B0CD1764B1B6A754A96
:101F0C0023F001031362734B1B6A724A23F0040320
:101F1C0013621CE07B68DB68052B0CD16D4B1B6AD4
:101F2C006C4A43F0040313626A4B1B6A694A43F020
:101F3C00010313620BE0674B1B6A664A23F0010333
:101F4C001362644B1B6A634A23F0040313627B68BD
:101F5C00DB68002B15D0FFF769FB38610AE0FFF74F
:101F6C0065FB02463B69D31A41F28832934201D990
:101F7C000323ABE0574B1B6A03F00203002BEED09C
:101F8C0014E0FFF753FB38610AE0FFF74FFB024602
:101F9C003B69D31A41F28832934201D9032395E06D
:101FAC004C4B1B6A03F00203002BEED1FB7D012B83
:101FBC0005D1484BDB69474A23F08053D3617B68DA
:101FCC00DB69002B00F08180424B5B6803F00C0353
:101FDC00082B61D07B68DB69022B46D13F4B00227A
:101FEC001A60FFF723FB386108E0FFF71FFB02467E
:101FFC003B69D31A022B01D9032367E0354B1B68CD
:10200C0003F00073002BF0D17B681B6AB3F5803FA3
:10201C0008D1304B5B6823F400327B689B682D49F8
:10202C0013434B602B4B5B6823F474127B68196A67
:10203C007B685B6A0B43274913434B60274B012298
:10204C001A60FFF7F3FA386108E0FFF7EFFA02467F
:10205C003B69D31A022B01D9032337E01D4B1B68B4
:10206C0003F00073002BF0D02FE01C4B00221A6001
:10207C00FFF7DCFA386108E0FFF7D8FA02463B6953
:10208C00D31A022B01D9032320E0124B1B6803F057
:10209C000073002BF0D118E07B68DB69012B01D1B8
:1020AC00012313E00B4B5B68FB60FB6803F480328D
:1020BC007B681B6A9A4206D1FB6803F470127B683A
:1020CC005B6A9A4201D0012300E0002318461837BE
:1020DC00BD4680BD001002400070004060004242CE
:1020EC0080B584B000AF786039607B68002B01D17B
:1020FC000123D0E06A4B1B6803F007033A689A424D
:10210C0010D9674B1B6823F0070265493B681343E2
:10211C000B60634B1B6803F007033A689A4201D0CB
:10212C000123B8E07B681B6803F00203002B20D06E
:10213C007B681B6803F00403002B05D0594B5B68CC
:10214C00584A43F4E06353607B681B6803F0080350
:10215C00002B05D0534B5B68524A43F460535360D9
:10216C00504B5B6823F0F0027B689B684D4913432E
:10217C004B607B681B6803F00103002B40D07B682D
:10218C005B68012B07D1474B1B6803F40033002B12
:10219C0015D101237FE07B685B68022B07D1414B93
:1021AC001B6803F00073002B09D1012373E03D4B36
:1021BC001B6803F00203002B01D101236BE0394BA8
:1021CC005B6823F003027B685B68364913434B6002
:1021DC00FFF72CFAF8600AE0FFF728FA0246FB68D2
:1021EC00D31A41F28832934201D9032353E02D4B89
:1021FC005B6803F00C027B685B689B009A42EBD136
:10220C00274B1B6803F007033A689A4210D2244B01
:10221C001B6823F0070222493B6813430B60204BD9
:10222C001B6803F007033A689A4201D0012332E09D
:10223C007B681B6803F00403002B08D0194B5B6808
:10224C0023F4E0627B68DB68164913434B607B68C0
:10225C001B6803F00803002B09D0124B5B6823F4B6
:10226C0060527B681B69DB000E4913434B6000F026
:10227C0021F802460B4B5B681B0903F00F030A495C
:10228C00CB5C22FA03F3094A1360094B1B6818460E
:10229C00FFF78AF9002318461037BD4680BD00BFF2
:1022AC000020024000100240602D00082000002099
:1022BC002400002090B48AB000AF2A4B3C1D0FCBF9
:1022CC0084E80F0040F201233B800023FB610023D4
:1022DC00BB6100237B6200237B6100233B62224BAA
:1022EC005B68FB61FB6903F00C03042B02D0082B29
:1022FC0003D02DE01D4B3B622DE0FB699B0C03F0E2
:10230C000F0307F12802134413F8243C7B61FB698B
:10231C0003F48033002B13D0134B5B685B0C03F07E
:10232C00010307F12802134413F8283CBB617B69B5
:10233C000E4A02FB03F2BB69B2FBF3F37B6204E0CF
:10234C007B690B4A02FB03F37B627B6A3B6202E014
:10235C00064B3B6200BF3B6A18462837BD4690BC13
:10236C00704700BF282D00080010024000127A00B0
:10237C0000093D0080B485B000AF78600A4B1B6843
:10238C000A4AA2FB03235B0A7A6802FB03F3FB6095
:10239C0000BFFB685A1EFA60002BF9D100BF00BFCA
:1023AC001437BD4680BC704720000020D34D62100E
:1023BC0080B582B000AF78607B68002B01D101231F
:1023CC0041E07B6893F83D30DBB2002B06D17B6893
:1023DC00002283F83C207868FEF75AFC7B680222C6
:1023EC0083F83D207B681A687B68043319461046D5
:1023FC0000F06AFA7B68012283F846207B68012290
:10240C0083F83E207B68012283F83F207B68012201
:10241C0083F840207B68012283F841207B680122ED
:10242C0083F842207B68012283F843207B680122D9
:10243C0083F844207B68012283F845207B680122C5
:10244C0083F83D20002318460837BD4680BD0000A8
:10245C0080B485B000AF78607B6893F83D30DBB218
:10246C00012B01D0012335E07B68022283F83D204B
:10247C007B681B68DA687B681B6842F00102DA60D3
:10248C007B681B68164A934209D07B681B68B3F1C2
:10249C00804F04D07B681B68124A934211D17B6831
:1024AC001B689B6803F00703FB60FB68062B10D0CE
:1024BC007B681B681A687B681B6842F001021A6013
:1024CC0007E07B681B681A687B681B6842F0010296
:1024DC001A60002318461437BD4680BC704700BFF5
:1024EC00002C01400004004080B582B000AF786041
:1024FC007B681B681B6903F00203022B22D17B68EB
:10250C001B68DB6803F00203022B1BD17B681B6882
:10251C006FF002021A617B6801221A777B681B68D4
:10252C009B6903F00303002B03D0786800F0B1F92A
:10253C0005E0786800F0A4F9786800F0B3F97B68DE
:10254C0000221A777B681B681B6903F00403042BB9
:10255C0022D17B681B68DB6803F00403042B1BD1BE
:10256C007B681B686FF004021A617B6802221A7781
:10257C007B681B689B6903F44073002B03D078685D
:10258C0000F087F905E0786800F07AF9786800F0D7
:10259C0089F97B6800221A777B681B681B6903F03A
:1025AC000803082B22D17B681B68DB6803F0080347
:1025BC00082B1BD17B681B686FF008021A617B68C3
:1025CC0004221A777B681B68DB6903F00303002B7A
:1025DC0003D0786800F05DF905E0786800F050F9F8
:1025EC00786800F05FF97B6800221A777B681B68BB
:1025FC001B6903F01003102B22D17B681B68DB686E
:10260C0003F01003102B1BD17B681B686FF01002BA
:10261C001A617B6808221A777B681B68DB6903F4F4
:10262C004073002B03D0786800F033F905E078682C
:10263C0000F026F9786800F035F97B6800221A77EB
:10264C007B681B681B6903F00103012B0ED17B68AF
:10265C001B68DB6803F00103012B07D17B681B6847
:10266C006FF001021A617868FEF75EFD7B681B68EB
:10267C001B6903F08003802B0ED17B681B68DB6821
:10268C0003F08003802B07D17B681B686FF08002FE
:10269C001A61786800F067FA7B681B681B6903F0A5
:1026AC004003402B0ED17B681B68DB6803F04003B2
:1026BC00402B07D17B681B686FF040021A61786869
:1026CC0000F0F9F87B681B681B6903F02003202BD2
:1026DC000ED17B681B68DB6803F02003202B07D12D
:1026EC007B681B686FF020021A61786800F032FA80
:1026FC0000BF0837BD4680BD80B584B000AF7860A0
:10270C0039607B6893F83C30012B01D10223B3E094
:10271C007B68012283F83C207B68022283F83D20F1
:10272C007B681B689B68FB60FB6823F07703FB608E
:10273C00FB6823F47F43FB607B681B68FA689A6034
:10274C003B681B68B3F5005F3ED0B3F5005F00F249
:10275C008780B3F5805F00F08580B3F5805F7FD80C
:10276C00702B1AD0702B7BD8602B50D0602B77D865
:10277C00502B3CD0502B73D8402B58D0402B6FD8BB
:10278C00302B64D0302B6BD8202B60D0202B67D80B
:10279C00002B5CD0102B5AD062E07B6818683B6829
:1027AC0099683B685A683B68DB6800F05CF97B68A9
:1027BC001B689B68FB60FB6843F07703FB607B68DE
:1027CC001B68FA689A604EE07B6818683B689968E9
:1027DC003B685A683B68DB6800F045F97B681B680E
:1027EC009A687B681B6842F480429A603BE07B6885
:1027FC0018683B6859683B68DB681A4600F0BCF8FF
:10280C007B681B685021184600F013F92BE07B689D
:10281C0018683B6859683B68DB681A4600F0DAF8C0
:10282C007B681B686021184600F003F91BE07B688D
:10283C0018683B6859683B68DB681A4600F09CF8DE
:10284C007B681B684021184600F0F3F80BE07B68AE
:10285C001A683B681B681946104600F0EAF802E05B
:10286C0000BF00E000BF7B68012283F83D207B683D
:10287C00002283F83C20002318461037BD4680BD4B
:10288C0080B483B000AF786000BF0C37BD4680BC0D
:10289C00704780B483B000AF786000BF0C37BD4682
:1028AC0080BC704780B483B000AF786000BF0C3739
:1028BC00BD4680BC704780B483B000AF786000BF69
:1028CC000C37BD4680BC704780B485B000AF7860D3
:1028DC0039607B681B68FB607B68254A934207D094
:1028EC007B68B3F1804F03D07B68224A934208D1B6
:1028FC00FB6823F07003FB603B685B68FA6813436A
:10290C00FB607B681A4A934207D07B68B3F1804F17
:10291C0003D07B68174A934208D1FB6823F44073B9
:10292C00FB603B68DB68FA681343FB60FB6823F0D1
:10293C0080023B685B691343FB607B68FA681A6032
:10294C003B689A687B68DA623B681A687B689A62B3
:10295C007B68074A934203D13B681A697B681A6308
:10296C007B6801225A6100BF1437BD4680BC70479A
:10297C00002C01400004004080B487B000AFF86028
:10298C00B9607A60FB681B6A7B61FB681B6A23F089
:10299C000102FB681A62FB689B693B613B6923F08F
:1029AC00F0033B617B681B013A6913433B617B6914
:1029BC0023F00A037B617A69BB6813437B61FB6874
:1029CC003A699A61FB687A691A6200BF1C37BD4686
:1029DC0080BC704780B487B000AFF860B9607A6093
:1029EC00FB681B6A23F01002FB681A62FB689B6988
:1029FC007B61FB681B6A3B617B6923F470437B61E1
:102A0C007B681B037A6913437B613B6923F0A0034A
:102A1C003B61BB681B013A6913433B61FB687A69F4
:102A2C009A61FB683A691A6200BF1C37BD4680BCCC
:102A3C00704780B485B000AF786039607B689B6864
:102A4C00FB60FB6823F07003FB603A68FB68134380
:102A5C0043F00703FB607B68FA689A6000BF143789
:102A6C00BD4680BC704780B487B000AFF860B960D9
:102A7C007A603B60FB689B687B617B6923F47F43D6
:102A8C007B613B681A027B681A43BB6813437A6903
:102A9C0013437B61FB687A699A6000BF1C37BD46A3
:102AAC0080BC704780B485B000AF786039607B68BB
:102ABC0093F83C30012B01D1022341E07B680122C9
:102ACC0083F83C207B68022283F83D207B681B68DE
:102ADC005B68FB607B681B689B68BB60FB6823F0D2
:102AEC007003FB603B681B68FA681343FB607B68F0
:102AFC001B68FA685A607B681B68144A934209D0B9
:102B0C007B681B68B3F1804F04D07B681B68104A4C
:102B1C0093420CD1BB6823F08003BB603B685B68BD
:102B2C00BA681343BB607B681B68BA689A607B68A1
:102B3C00012283F83D207B68002283F83C2000238F
:102B4C0018461437BD4680BC704700BF002C0140AE
:102B5C000004004080B483B000AF786000BF0C3735
:102B6C00BD4680BC704780B483B000AF786000BFB6
:102B7C000C37BD4680BC7047014B1868704700BFCE
:102B8C002C00002008B5074B044613B10021AFF30D
:102B9C000080054B1868836A03B198472046FEF7FE
:102BAC00DDF800BF00000000702D000870B5002695
:102BBC000C4D0D4C641BA410A64209D100F0A2F8D8
:102BCC0000260A4D0A4C641BA410A64205D170BD08
:102BDC0055F8043B98470136EEE755F8043B984707
:102BEC000136F2E7742D0008742D0008742D0008CE
:102BFC00782D0008024B0146186800F00BB800BF96
:102C0C002C00002003460244934200D1704703F885
:102C1C00011BF9E7F8B5CD1C25F0030508350C2D83
:102C2C0038BF0C25002D064601DBA94203D90C2325
:102C3C0033600020F8BD00F057F821490A681446AB
:102C4C009CB9204F3B6823B92146304600F03CF834
:102C5C0038602946304600F037F8431C23D10C234A
:102C6C003046336000F046F8E3E723685B1B17D46B
:102C7C000B2B03D923601C44256004E06368A2423B
:102C8C000CBF0B605360304600F034F804F10B00BD
:102C9C00231D20F00700C21ACCD01B1AA350C9E781
:102CAC0022466468CCE7C41C24F00304A042E3D0A1
:102CBC00211A304600F008F80130DDD1CFE700BF13
:102CCC000C0100201001002038B50023054D0446EE
:102CDC0008462B60FEF74CF8431C02D12B6803B15D
:102CEC00236038BD6C010020014800F009B800BF1A
:102CFC0074010020014800F004B800BF74010020EA
:102D0C0070477047F8B500BFF8BC08BC9E467047CA
:0C2D1C00F8B500BFF8BC08BC9E4670472C
:102D280002030405060708090A0B0C0D0E0F101004
:102D3800010002000400080010002000400000000C
:102D48008000000100020004000400081000400098
:102D580020008000000200010000000000000000C8
:0C2D6800010203040607080930000020E7
:042D74003101000821
:042D78000D01000841
:102D7C000001020409060309060300000906030901
:102D8C0006030000014F12064C24200F0004FF0024
:102D9C000024F400100000000100000030000020AE
:102DAC000000000000000000000000000000000017
:102DBC000000000000000000000000000000000007
:102DCC0000000000000000000000000000000000F7
:102DDC0000000000000000000000000000000000E7
:102DEC0000000000000000000000000000000000D7
:102DFC0000000000000000000000000000000000C7
:040000050800153D9D
:00000001FF
